:020000040800F2
:10000000C80700204D020008251600082716000822
:10001000291600082B1600082D1600080000000005
:100020000000000000000000000000002F16000883
:1000300031160008000000003316000837160008CB
:1000400067020008670200086702000867020008EC
:1000500067020008670200086702000867020008DC
:1000600067020008670200086702000867020008CC
:1000700067020008670200086702000867020008BC
:1000800067020008670200086702000867020008AC
:10009000670200086702000867020008670200089C
:1000A000670200086702000867020008670200088C
:1000B000670200086702000867020008670200087C
:1000C000670200086702000867020008670200086C
:1000D00067020008FB1300081B1400083D14000809
:1000E000670200086702000867020008670200084C
:1000F000670200086702000867020008670200083C
:10010000670200086702000867020008670200082B
:100110005F140008811400086702000867020008E5
:10012000670200086702000867020008670200080B
:1001300067020008670200086702000867020008FB
:1001400067020008670200086702000867020008EB
:10015000670200086702000867020008A11400088F
:1001600067020008670200086702000867020008CB
:1001700067020008670200086702000867020008BB
:100180006702000867020008C3140008E5140008AD
:10019000670200086702000867020008670200089B
:1001A00067020008670200086702000800F002F812
:1001B00000F03CF80AA090E8000C82448344AAF1C5
:1001C0000107DA4501D100F031F8AFF2090EBAE8C3
:1001D0000F0013F0010F18BFFB1A43F0010318477B
:1001E0007416000094160000103A24BF78C878C135
:1001F000FAD8520724BF30C830C144BF04680C602D
:10020000704700000023002400250026103A28BF74
:1002100078C1FBD8520728BF30C148BF0B60704778
:100220001FB501F012FB1FBD10B510BD01F0D7FACC
:100230001146FFF7F5FF01F0D3F901F0F5FA03B429
:10024000FFF7F2FF03BC01F0F9FA0000094880470C
:1002500009480047FEE7FEE7FEE7FEE7FEE7FEE7A8
:10026000FEE7FEE7FEE7FEE704480549054A064BC0
:1002700070470000FF160008AD010008C80100200B
:10028000C8070020C8030020C803002028490843ED
:1002900028490860704730B50F23C27801780125DE
:1002A000FAB1244A126801F1E02102F4E062C2F5D9
:1002B000E062C2F30722C2F10404D3404278A240B4
:1002C00084781C401443220181F80024007800F057
:1002D0001F018D404009800000F1E020C0F800516E
:1002E00030BD01F01F0085404809800000F1E0208A
:1002F000C0F8805130BD104A114001430D48001F25
:10030000016070470B4A121D0029116801D001439A
:1003100000E08143116070474FF0E0210428086934
:1003200003D020F004000861704740F00400FAE7B1
:100330000000FA050CED00E080FFFF1FF94801689E
:1003400041F001010160F74A0021083211600268A2
:10035000F54B1A400260031DF44A1A60F14BF44A4F
:1003600084331A60F14A103A1B1D1A60026822F4A5
:1003700080220260EB480C300160181D016070475C
:10038000E8490022891C0A70087070470246002064
:10039000510901290CD002290CD0E24974310968B5
:1003A00002F01F02012393400B4200D0012070474E
:1003B000DC49F4E7DB497031F1E718B500204FF470
:1003C000A04400903120FFF7E1FF0099491C009103
:1003D000A14201D00028F5D03120FFF7D7FF002837
:1003E00000D0012018BDCF4A116821F0F80141EA80
:1003F000C00010607047CF4908607047C9490022AB
:1004000070310A700A70012802D0042801D1052039
:1004100008707047C8490860704741EA82115A085D
:1004200010B5C64B029C03EB02421143014341EA63
:100430000460BC49091D086010BDBE4908667047CC
:10044000800140EA0160B74940EA027084310860E7
:100450007047B84988667047800140EA0160B14939
:1004600040EA0270883108607047B24908677047F7
:10047000B049C8647047AB4B08331A68084322F090
:10048000EC62104318607047A64B08331A680843A3
:1004900022F07842104318607047A24A083211686F
:1004A00021F003010143116070479E480830006845
:1004B00000F00C0070479B4A0832116821F0F001EF
:1004C000014311607047974A0832116821F4E051E6
:1004D000014311607047934A0832116821F460416A
:1004E00041EAC0001060704770B58E4B0833196840
:1004F000934C11F00C0104D06610042903D0082994
:1005000003D004601BE0066019E0864A121D1168E2
:10051000C1F38055116801F03F0115B1B6FBF1F14F
:1005200001E0B4FBF1F114681268C4F3881461436C
:10053000C2F30142521C5200B1FBF2F10160196892
:100540000F2202EA11117F4A545C0168E1404160C8
:100550001C68072505EA9424145D21FA04F48460DC
:100560001B6805EA5333D25CD140C16070BDC0F353
:100570000121032908D16B4B08331968724A21F411
:10058000F81102400A431A60664970310A68C0F3E4
:100590000B0002430A60704767494439086070479E
:1005A00065494039086070476249C1F85C0170478D
:1005B0005C4A8C321168401E21F01F01014311601A
:1005C0007047584A8C3211686FF0FF0321F4F851DC
:1005D00003EB0020084310607047524A8C321168C8
:1005E00021F440110143116070474E4A8C3211686A
:1005F00021F440010143116070474A4A8C3211686E
:1006000021F440310143116070475049C1F8E001C5
:100610007047444A30320029116801D0014300E09C
:100620008143116070473F4A34320029116801D07C
:10063000014300E08143116070473A4A3832002993
:10064000116801D0014300E0814311607047354AD1
:1006500040320029116801D0014300E0814311605C
:100660007047304A44320029116801D0014300E04C
:100670008143116070472B4A10320029116801D064
:10068000014300E0814311607047264A143200297B
:10069000116801D0014300E0814311607047214A95
:1006A00018320029116801D0014300E08143116034
:1006B00070471C4A20320029116801D0014300E034
:1006C000814311607047174A24320029116801D014
:1006D000014300E0814311607047124A5032002903
:1006E000116801D0014300E08143116070470D4A59
:1006F00054320029116801D0014300E081431160A8
:100700007047084A58320029116801D0014300E0BF
:10071000814311607047034A60320029116817D085
:10072000014316E000380240FFFFF6EA10300024D3
:100730000030002000004742800E47420000FFFFCB
:100740000024F40000000020FFFCFF0F00104742CF
:10075000814311607047194A0029116801D0014393
:1007600000E081431160704714490C31012808688A
:1007700003D020F008000860704740F00800FAE756
:100780000E4A573A0029117801D0014300E0814315
:100790001170704709481030016841F080710160A4
:1007A00070470146054A0020583A12680A4200D0B4
:1007B000012070470149563908707047643802407B
:1007C000774910B5884206D101210846FFF753FF4B
:1007D000002101205BE07349884206D101210220FB
:1007E000FFF749FF0021022051E06F49884206D1FE
:1007F00001210420FFF73FFF0021042047E06B495F
:10080000884206D101210820FFF735FF002108208A
:100810003DE06749884206D101211020FFF72BFFF8
:100820000021102033E06349884206D101212020B5
:10083000FFF721FF0021202029E05F49884206D1EF
:1008400001214020FFF717FF002140201FE05B49F6
:10085000884206D101218020FFF70DFF0021802072
:1008600015E05749884202D1012184150AE0554913
:10087000884202D10121441504E0534988420AD13B
:10088000012104152046FFF7F6FE00212046BDE8B1
:100890001040FFF7F0BE10BDF0B5002201274FF069
:1008A000030C0B6807FA02F52B40AB422CD106680B
:1008B00053000CFA03F4A64306600E79D0F800E06A
:1008C0009E4046EA0E0606600E79012E01D0022EE9
:1008D00012D18668A64386604E79D0F808E09E4023
:1008E00046EA0E0686604668AE43466045688E79E5
:1008F0009640B6B235434560C568A543C560CC791E
:100900009C40C3681C43C460521C102AC9D3F0BD6C
:100910004FF6FF7101600021017141718171C17158
:10092000704708B541F480320092C261C1610099FC
:10093000C161C169C069009008BD0246002012690A
:100940000A4200D001207047006980B27047024619
:10095000002052690A4200D001207047406980B2ED
:10096000704701837047418370470AB10183704724
:10097000418370474161704742694A404261704714
:100980004B07DB0E9A40C90810B500EB8100016AE5
:100990000F249C40A1430162016A1143016210BD12
:1009A000000002400004024000080240000C024027
:1009B000001002400014024000180240001C0240D7
:1009C000002002400024024000280240CD4910B51A
:1009D000884206D101211020FFF775FE002110206A
:1009E00020E0C949884202D101214C0429E0C749CD
:1009F000884202D101218C0423E0C549884202D1FA
:100A00000121CC041DE0C349884202D101210C051B
:100A100017E0C149884209D101212020FFF753FE88
:100A200000212020BDE81040FFF74DBEBB498842A1
:100A300002D101218C0704E0B94988420AD1012181
:100A400044052046FFF735FE2046BDE81040002152
:100A5000FFF72FBE10BD7FB50446008A0D46C9883A
:100A600020F4405001432182A08941F20C61884367
:100A7000A9882A8911436A8902431143A181A08A66
:100A800020F44071A8890843A0826846FFF72CFD36
:100A90009C48844202D0A048844201D1039800E0DF
:100AA0000298A189090400EBC00101EB001029683C
:100AB00001D5490000E08900B0FBF1F06422B0FBF1
:100AC000F2F109010B096FF018056B4300EB83008D
:100AD000A3891D044FF0320306D503EBC000B0FB21
:100AE000F2F000F0070005E003EB0010B0FBF2F0BD
:100AF00000F00F00084320817FBD4FF416510160C4
:100B000000218180C18001810C2242818181704756
:100B100010B5028A4C8822F470630A8822438C88BC
:100B2000C9880C4322431A43028210BD0021018070
:100B300041808180C18070470029818902D041F4C1
:100B4000005101E021F4005181817047028B02F4D1
:100B50007F420283028B0A43028370470029818906
:100B600002D041F4004101E0C1F30E0181817047E0
:100B70000029818A02D041F4006101E021F4006182
:100B800081827047C1F30801818070478088C0F37B
:100B900008007047028A22F00F020282028A0A438A
:100BA000028270470029818902D041F0020101E0F0
:100BB00021F0020181817047828922F400628281E2
:100BC00082890A4382817047028A22F020020282CF
:100BD000028A0A43028270470029018A02D041F446
:100BE000804101E021F4804101827047818941F018
:100BF0000101818170470029818A02D041F00801FA
:100C000001E021F0080181827047028BD2B2028399
:100C1000028B42EA0121018370470029818A02D0B8
:100C200041F0200101E021F020018182704700297C
:100C3000818A02D041F0100101E021F0100181828F
:100C40007047828A22F004028282828A0A43828268
:100C500070470029818A02D041F0020101E021F0B1
:100C6000020181827047002A828A01D00A4300E093
:100C70008A438282704710B5C1F3421301F01F040A
:100C80000121A140012B07D0022B07D01430002AEC
:100C9000026805D00A4304E00C30F8E71030F6E7AC
:100CA0008A43026010BD0246002012880A4200D02A
:100CB00001207047C9430180704770B501F01F05DE
:100CC00001260024C1F3421306FA05F2012B0FD0CE
:100CD000022B0FD0838A4FEA11210088134206FAB3
:100CE00001F600EA060001D000B10124204670BDE3
:100CF0008389F0E7038AEEE70A0A01219140C9439C
:100D0000018070470010014000440040004800404E
:100D1000004C0040005000400014014000780040AA
:100D2000007C00402A484168491C416081680029D4
:100D300002D08168491E8160704710B5244C20782C
:100D4000002821D10120FFF71BFBFFF736FB00280D
:100D5000FBD0204801684FF47A70B1FBF0F0401EE0
:100D6000B0F1807F11D24FF0E02250611A4BF02099
:100D700083F8140D00209061072010611748B1FB23
:100D8000F0F0E0600120207010BDFEE71048007810
:100D9000002805D04FF0E020016941F00201016117
:100DA00070474FF0E020016921F0020101617047B6
:100DB0000749C9684843401EFDD27047044908B539
:100DC0004A6800924A68009BD21A8242FAD308BD50
:100DD00010000020200000200FE000E0C0C62D0021
:100DE000FD49884222D0FD49884201D10120704747
:100DF000FB49884201D102207047FA49884201D15B
:100E000003207047F849884201D104207047F74910
:100E1000884201D105207047F549884201D106205A
:100E20007047F449884201D107207047002070477D
:100E30007CB504460121C807FFF709FC02218DF8A3
:100E4000041000208DF80600012003258DF807000E
:100E50008DF80550002C13D101211020FFF7D9FB8C
:100E6000E54C082201212046FFF78AFD08220021D7
:100E70002046FFF785FD694620460095FFF70CFDEB
:100E80007CBD1CB5044601218807FFF7E0FB02206A
:100E90008DF8040000208DF8060001208DF8070071
:100EA00003208DF80500BCB1012C14D101212020B4
:100EB000FFF7AFFBD14C082207212046FFF760FD6A
:100EC000082206212046FFF75BFDC02100916946FC
:100ED0002046FFF7E1FC1CBD01211020FFF799FB24
:100EE000C54C082211462046FFF74AFD082207217B
:100EF0002046FFF745FD4FF4C071E7E71CB50446F7
:100F000001212020FFF7ADFB02208DF80400002016
:100F10008DF8060001208DF8070003208DF80500EC
:100F2000C4B1012C15D101214020FFF772FBB44C54
:100F300008220E212046FFF723FD08220921204622
:100F4000FFF71EFD4FF48441009169462046FFF7EC
:100F5000A3FC1CBD01210420FFF75BFBA94C082268
:100F600006212046FFF70CFD082207212046FFF747
:100F700007FDC021E8E77CB5044601210805FFF71D
:100F800066FB02218DF8041000218DF80610012166
:100F900003208DF807108DF80500002C1ED10420C9
:100FA000FFF737FB01210820FFF733FB954D08229F
:100FB0000C212846FFF7E4FC934C0822022120462E
:100FC000FFF7DEFCA114009169462846FFF764FC98
:100FD0000421009169462046FFF75EFC7CBD7CB58C
:100FE00004460121C804FFF732FB02208DF80400FB
:100FF00000208DF8060001208DF8070003258DF8EC
:101000000550BCB1012C14D101210420FFF701FBD4
:101010007C4C08220A212046FFF7B2FC08220B2153
:101020002046FFF7ADFCA902009169462046FFF774
:1010300033FC7CBD01210846FFF7EBFA734C082214
:1010400000212046FFF79CFC082201212046FFF7E3
:1010500097FC0095E9E77CB5044601218804FFF779
:10106000F6FA02208DF8040000208DF80600012019
:101070008DF8070003208DF805008502ACB1012C26
:101080001BD0022C2DD101210820FFF7C2FA5E4CA3
:10109000072208212046FFF773FC0722092120467A
:1010A000FFF76EFCA910009117E001210220FFF765
:1010B000B0FA07220A21564C06E001210420FFF76E
:1010C000A8FA07224F4C0A212046FFF759FC0722B5
:1010D0000B212046FFF754FC009569462046FFF798
:1010E000DBFB7CBD1CB5044601214804FFF7AFFAC9
:1010F00002208DF8040000208DF8060001208DF8F4
:10110000070003208DF80500BCB1012C14D101218A
:101110000820FFF77EFA3C4C072205212046FFF706
:101120002FFC072206212046FFF72AFC60210091B0
:1011300069462046FFF7B0FB1CBD01210846FFF7BA
:1011400068FA324C072202212046FFF719FC0722D9
:1011500003212046FFF714FC0C21E8E71CB50446E8
:1011600001211020FFF77DFA02208DF804000020F5
:101170008DF8060001208DF8070003208DF805008A
:10118000BCB1012C14D101210220FFF742FA204CFE
:10119000072206212046FFF7F3FB072211462046CF
:1011A000FFF7EEFBC021009169462046FFF774FB74
:1011B0001CBD01210846FFF72CFA144C0722092117
:1011C0002046FFF7DDFB07220A212046FFF7D8FB68
:1011D0004FF4C061E7E70000001001400044004008
:1011E00000480040004C0040005000400014014006
:1011F00000780040007C00400010024000140240D3
:101200000018024000080240000C024000000240AA
:1012100000040240F0B5044685B0E8480C260025DD
:101220000F46009284420FD10846FFF797FF252012
:10123000ADF80A60ADF806508DF81000ADF80C500E
:10124000ADF80850ADF80450DD4884420FD138465F
:10125000FFF748FF2620ADF80A60ADF806508DF87C
:101260001000ADF80C50ADF80850ADF80450D5485A
:1012700084420FD13846FFF7EEFE2720ADF80A6012
:10128000ADF806508DF81000ADF80C50ADF80850D0
:10129000ADF80450CC4884420FD13846FFF79FFE8A
:1012A0003420ADF80A60ADF806508DF81000ADF8A6
:1012B0000C50ADF80850ADF80450C44884420FD12A
:1012C0003846FFF758FE3520ADF80A60ADF80650F5
:1012D0008DF81000ADF80C50ADF80850ADF8045082
:1012E000BB4884420FD13846FFF708FE4720ADF8CF
:1012F0000A60ADF806508DF81000ADF80C50ADF84E
:101300000850ADF80450B34884420FD13846FFF777
:10131000B8FD5220ADF80A60ADF806508DF8100007
:10132000ADF80C50ADF80850ADF80450AA4884420E
:101330000FD13846FFF77CFD5320ADF80A60ADF8B9
:1013400006508DF81000ADF80C50ADF80850ADF80F
:10135000045069462046FFF77EFB01212046FFF737
:10136000EBFB012240F225512046FFF784FC0120CF
:101370008DF813008DF811502046FFF731FD8DF8E0
:10138000120004A8FEF787FF05B0F0BD13B50446B0
:1013900080212046FFF787FC0028F9D09DF8041033
:1013A0002046BDE81C40FFF7EDBB70B50C46054676
:1013B00003E02846641CFFF7E9FF21780029F8D1F3
:1013C00070BD70B5854D35F81020202A14D2A5F1D6
:1013D000200434F810301F2B02D9002324F81030D9
:1013E0007E4E9BB2103606EB401699555B1C24F8D6
:1013F0001030521C25F8102070BD10B56F4C40F213
:1014000025512046FFF759FC002805D0A088BDE8EB
:101410001040C1B20020D4E710BD10B540F22551F4
:101420006748FFF74AFC002807D06548001D008880
:10143000BDE81040C1B20120C3E710BD10B540F2B5
:1014400025516048FFF739FC002807D05D48001D92
:101450000088BDE81040C1B20220B2E710BD10B54F
:1014600040F225515848FFF728FC002807D056487D
:10147000001D0088BDE81040C1B20320A1E710BDE7
:1014800010B5524C40F225512046FFF716FC0028BB
:1014900005D0A088BDE81040C1B2042091E710BD7E
:1014A00010B540F225514A48FFF707FC002807D045
:1014B0004748001D0088BDE81040C1B2052080E704
:1014C00010BD10B540F225514248FFF7F6FB002849
:1014D00007D04048001D0088BDE81040C1B206207A
:1014E0006FE710BD10B540F225513B48FFF7E5FB13
:1014F000002807D03848001D0088BDE81040C1B260
:1015000007205EE710BDF0B5FFF76AFC334E0022FE
:1015100036F81040B4B1A6F11005002735F81010C8
:101520001F2901D925F810702C4A35F810101032F7
:1015300002EB4013CA5CCF54491C25F81010641EFE
:1015400026F810401046F0BD00B5FFF749FC2349CE
:1015500031F8100008B1002000BD012000BDF0B539
:1015600000240E4684462746FFF7EEFF08B1002010
:10157000F0BD9AB1551E6046FFF7E6FF0028FAD18C
:101580006046FFF7C0FF30550A2805D0AC4201DAAB
:10159000641CA4B2002FEED0002030552046F0BDD0
:1015A00000B5FFF71DFC0D4A002122F81010203A6B
:1015B00022F81010103222F8101000BD0010014067
:1015C0000044004000480040004C004000500040F3
:1015D0000014014000780040007C004054000020CE
:1015E00000F08DF8FFF7A9FB094C4FF416520021CB
:1015F0002046FFF70FFE07A12046FFF7D6FE204644
:10160000FFF781FF0100FAD02046FFF7BFFEF6E7A3
:101610000010014048656C6C6F20776F726C640A33
:101620000D0000007047FEE7FEE7FEE7FEE77047AB
:1016300070477047704710B5FFF774FB10BD00008E
:101640001CB500215B4A00910191106840F4803084
:1016500010604FF4A043106800F40030019000982F
:10166000401C0090019810B900989842F3D110687E
:10167000800342D5012001904E484030016841F07E
:10168000805101604C49086840F440400860494876
:10169000083003680360036843F400430360036891
:1016A00043F4A0530360041F444B2360136843F0CA
:1016B0008073136013689B01FCD50A6842F4803282
:1016C0000A604A68D203FCD50A6842F400320A6014
:1016D0004A689203FCD53A4A40F2057111600168EC
:1016E00021F003010160016841F00201016001681D
:1016F000C1F381010229FAD11CBD01911CBD314801
:1017000010B5016841F4700101602A48016841F098
:1017100001010160274A00210832116002682A4B4A
:101720001A400260031D294A1A60026822F48022CE
:10173000026020480C300160FFF782FF21494FF022
:1017400000608039086010BD70B51A4D08352868F2
:101750001F4B204910F00C0004D05E10042803D069
:10176000082803D00B601BE00E6019E0114A121D1F
:101770001068C0F38054106800F03F0014B1B6FB4D
:10178000F0F001E0B3FBF0F013681268C3F38813C4
:101790005843C2F30142521C5200B0FBF2F0086001
:1017A00028680C4AC0F30310121D105C0A68C2407E
:1017B0000A6070BD0038024000700040085A4007BF
:1017C000003C024088ED00E0FFFFF6FE10300024F0
:1017D0000024F400200000207047704770477546D1
:1017E00000F028F8AE4605006946534620F0070091
:1017F000854618B020B5FEF737FDBDE820404FF014
:1018000000064FF000074FF000084FF0000B21F0EA
:101810000701AC46ACE8C009ACE8C009ACE8C009B7
:10182000ACE8C0098D4670470446AFF300802046FF
:10183000FEF705FD004870476401002001491820AB
:10184000ABBEFEE72600020070474FF04070E1EEAD
:10185000100A7047741800080000002034000000CF
:10186000E8010008A81800083400002094070000D0
:101870000402000800000000010203040102030446
:10188000060708090000000000000000000000003A
:10189000000000000095BA0A0000000000000000EF
:0818A000010203040607080918
:040000050800024DA0
:00000001FF
