:020000040800F2
:10000000A80600204D0200082D1D00082F1D000825
:10001000311D0008331D0008351D000800000000D8
:10002000000000000000000000000000371D000874
:10003000391D0008000000003B1D00083F1D00089E
:1000400067020008670200086702000867020008EC
:1000500067020008670200086702000867020008DC
:1000600067020008670200086702000867020008CC
:1000700067020008670200086702000867020008BC
:1000800067020008670200086702000867020008AC
:10009000670200086702000867020008670200089C
:1000A000670200086702000867020008670200088C
:1000B000670200086702000867020008670200087C
:1000C000670200086702000867020008670200086C
:1000D000670200086702000867020008670200085C
:1000E000670200086702000867020008670200084C
:1000F000670200086702000867020008670200083C
:10010000670200086702000867020008670200082B
:10011000670200086702000867020008670200081B
:10012000670200086702000867020008670200080B
:1001300067020008670200086702000867020008FB
:1001400067020008670200086702000867020008EB
:1001500067020008670200086702000867020008DB
:1001600067020008670200086702000867020008CB
:1001700067020008670200086702000867020008BB
:1001800067020008670200086702000867020008AB
:10019000670200086702000867020008670200089B
:1001A00067020008670200086702000800F002F812
:1001B00000F03CF80AA090E8000C82448344AAF1C5
:1001C0000107DA4501D100F031F8AFF2090EBAE8C3
:1001D0000F0013F0010F18BFFB1A43F0010318477B
:1001E000D82A0000F82A0000103A24BF78C878C145
:1001F000FAD8520724BF30C830C144BF04680C602D
:10020000704700000023002400250026103A28BF74
:1002100078C1FBD8520728BF30C148BF0B60704778
:100220001FB501F096FE1FBD10B510BD01F05BFEBD
:100230001146FFF7F5FF01F01FFD01F079FE03B451
:10024000FFF7F2FF03BC01F07DFE00000948804784
:1002500009480047FEE7FEE7FEE7FEE7FEE7FEE7A8
:10026000FEE7FEE7FEE7FEE704480549054A064BC0
:1002700070470000071E0008AD010008A80000201C
:10028000A8060020A8020020A8020020F948016862
:1002900041F001010160F74A002108321160026853
:1002A000F54B1A400260031DF44A1A60F14BF44A00
:1002B00084331A60F14A103A1B1D1A60026822F456
:1002C00080220260EB480C300160181D016070470D
:1002D000E8490022891C0A70087070470246002015
:1002E000510901290CD002290CD0E2497431096866
:1002F00002F01F02012393400B4200D001207047FF
:10030000DC49F4E7DB497031F1E718B500204FF420
:10031000A04400903120FFF7E1FF0099491C0091B3
:10032000A14201D00028F5D03120FFF7D7FF0028E7
:1003300000D0012018BDCF4A116821F0F80141EA30
:10034000C00010607047CF4908607047C94900225B
:1003500070310A700A70012802D0042801D10520EA
:1003600008707047C8490860704741EA82115A080E
:1003700010B5C64B029C03EB02421143014341EA14
:100380000460BC49091D086010BDBE49086670477D
:10039000800140EA0160B74940EA02708431086098
:1003A0007047B84988667047800140EA0160B149EA
:1003B00040EA0270883108607047B24908677047A8
:1003C000B049C8647047AB4B08331A68084322F041
:1003D000EC62104318607047A64B08331A68084354
:1003E00022F07842104318607047A24A0832116820
:1003F00021F003010143116070479E4808300068F6
:1004000000F00C0070479B4A0832116821F0F0019F
:10041000014311607047974A0832116821F4E05196
:10042000014311607047934A0832116821F460411A
:1004300041EAC0001060704770B58E4B08331968F0
:10044000934C11F00C0104D06610042903D0082944
:1004500003D004601BE0066019E0864A121D116893
:10046000C1F38055116801F03F0115B1B6FBF1F100
:1004700001E0B4FBF1F114681268C4F3881461431D
:10048000C2F30142521C5200B1FBF2F10160196843
:100490000F2202EA11117F4A545C0168E140416079
:1004A0001C68072505EA9424145D21FA04F484608D
:1004B0001B6805EA5333D25CD140C16070BDC0F304
:1004C0000121032908D16B4B08331968724A21F4C2
:1004D000F81102400A431A60664970310A68C0F395
:1004E0000B0002430A60704767494439086070474F
:1004F00065494039086070476249C1F85C0170473E
:100500005C4A8C321168401E21F01F0101431160CA
:100510007047584A8C3211686FF0FF0321F4F8518C
:1005200003EB0020084310607047524A8C32116878
:1005300021F440110143116070474E4A8C3211681A
:1005400021F440010143116070474A4A8C3211681E
:1005500021F440310143116070475049C1F8E00176
:100560007047444A30320029116801D0014300E04D
:100570008143116070473F4A34320029116801D02D
:10058000014300E08143116070473A4A3832002944
:10059000116801D0014300E0814311607047354A82
:1005A00040320029116801D0014300E0814311600D
:1005B0007047304A44320029116801D0014300E0FD
:1005C0008143116070472B4A10320029116801D015
:1005D000014300E0814311607047264A143200292C
:1005E000116801D0014300E0814311607047214A46
:1005F00018320029116801D0014300E081431160E5
:1006000070471C4A20320029116801D0014300E0E4
:10061000814311607047174A24320029116801D0C4
:10062000014300E0814311607047124A50320029B3
:10063000116801D0014300E08143116070470D4A09
:1006400054320029116801D0014300E08143116058
:100650007047084A58320029116801D0014300E070
:10066000814311607047034A60320029116817D036
:10067000014316E000380240FFFFF6EA1030002484
:100680000030002000004742800E47420000FFFF7C
:100690000024F40000000020FFFCFF0F0010474280
:1006A000814311607047194A0029116801D0014344
:1006B00000E081431160704714490C31012808683B
:1006C00003D020F008000860704740F00800FAE707
:1006D0000E4A573A0029117801D0014300E08143C6
:1006E0001170704709481030016841F08071016055
:1006F00070470146054A0020583A12680A4200D065
:10070000012070470149563908707047643802402B
:10071000774910B5884206D101210846FFF753FFFB
:10072000002101205BE07349884206D101210220AB
:10073000FFF749FF0021022051E06F49884206D1AE
:1007400001210420FFF73FFF0021042047E06B490F
:10075000884206D101210820FFF735FF002108203B
:100760003DE06749884206D101211020FFF72BFFA9
:100770000021102033E06349884206D10121202066
:10078000FFF721FF0021202029E05F49884206D1A0
:1007900001214020FFF717FF002140201FE05B49A7
:1007A000884206D101218020FFF70DFF0021802023
:1007B00015E05749884202D1012184150AE05549C4
:1007C000884202D10121441504E0534988420AD1EC
:1007D000012104152046FFF7F6FE00212046BDE862
:1007E0001040FFF7F0BE10BDF0B5002201274FF01A
:1007F000030C0B6807FA02F52B40AB422CD10668BC
:1008000053000CFA03F4A64306600E79D0F800E01A
:100810009E4046EA0E0606600E79012E01D0022E99
:1008200012D18668A64386604E79D0F808E09E40D3
:1008300046EA0E0686604668AE43466045688E7995
:100840009640B6B235434560C568A543C560CC79CE
:100850009C40C3681C43C460521C102AC9D3F0BD1D
:100860004FF6FF7101600021017141718171C17109
:10087000704708B541F480320092C261C1610099AD
:10088000C161C169C069009008BD024600201269BB
:100890000A4200D001207047006980B270470246CA
:1008A000002052690A4200D001207047406980B29E
:1008B000704701837047418370470AB101837047D5
:1008C000418370474161704742694A4042617047C5
:1008D0004B07DB0E9A40C90810B500EB8100016A96
:1008E0000F249C40A1430162016A1143016210BDC3
:1008F000000002400004024000080240000C0240D8
:10090000001002400014024000180240001C024087
:10091000002002400024024000280240C14910B5D6
:10092000884202D10121841424E0BF49884202D1C7
:100930000121041404E0BD4988420AD10121C413F5
:100940002046FFF75EFE2046BDE810400021FFF77D
:1009500058BEB749884202D1012144140AE0B54982
:10096000884202D101210C0504E0B34988420AD132
:1009700001214C052046FFF74EFE2046BDE8104001
:100980000021FFF748BE10BD30B502884C8802F444
:1009900041530A88CD8822438C882C4322430C89FA
:1009A00022434C8922438C892243CC8922431A4317
:1009B0000280828B22F400628283098A018230BD28
:1009C000F0B502220023858B01244FF2400635400A
:1009D00085830284868B8D68022D3DD08A8802B182
:1009E0000224964A13681B0203D5136823F40003FC
:1009F0001360924A7C3213681268C3F388138F4FD6
:100A0000C2F302723F1F3D683F6805F03F057F0259
:100A100001D58B4F00E08B4FB7FBF5F55D43B5FB80
:100A2000F2F2CB88B3F5007F2BD06301B2FBF3F277
:100A300002EB82028B685200B2FBF3F2521D92B2BB
:100A40000A23B2FBF3F202F00103D21A4FF6FF744D
:100A5000C2F34F0204EA0323941EFE2C01D30222A8
:100A60000023CC881A43144304840A884B881A4311
:100A70008B8889890B431A43324342F40061818396
:100A8000F0BD120AD4E70021018041808180C1803D
:100A9000018141818181C18107210182704700214B
:100AA000018041808180C180022282608181704703
:100AB0000029018802D041F0400101E021F040010D
:100AC000018070470029818B02D041F4806101E0F0
:100AD00021F4806181837047028822F400620280E1
:100AE00002880A4302807047B1F5804F018803D025
:100AF00021F480410180704741F48041FAE7A1F57B
:100B00007E420188FF3A02D041F4807101E021F475
:100B10008071018070470029818802D041F0040172
:100B200001E021F00401818070470029818802D012
:100B300041F0100101E021F010018180704730B5D3
:100B4000828B00234FF240042240828302220284DF
:100B5000848B0A884FF48075B2F5007F00D002B90B
:100B60002B464A888D8889892A4319430A432243A0
:100B700042F40061818330BD808970478181704774
:100B80000029018802D041F4005101E021F4005114
:100B900001807047018841F480510180704701292C
:100BA00001D0008B7047808A7047008A7047002A06
:100BB000828801D00A4300E08A4382807047090995
:100BC00001238B40002A828899B201D00A4300E0B9
:100BD0008A43828070470246002012890A4200D070
:100BE00001207047C9430181704730B501F00F0300
:100BF0000125024605FA03F40020A3B2090905FA0B
:100C000001F49188A4B2128921401A4202D000292D
:100C100000D0012030BD01F00F0201219140C943F5
:100C2000018170470030014000380040003C004026
:100C30000034014000500140005401400838024097
:100C400000127A000024F4002A484168491C4160DF
:100C50008168002902D08168491E8160704710B503
:100C6000244C2078002821D10120FFF731FBFFF729
:100C70004CFB0028FBD0204801684FF47A70B1FB90
:100C8000F0F0401EB0F1807F11D24FF0E0225061B1
:100C90001A4BF02083F8140D00209061072010619A
:100CA0001748B1FBF0F0E0600120207010BDFEE7B6
:100CB00010480078002805D04FF0E020016941F08D
:100CC0000201016170474FF0E020016921F002014B
:100CD000016170470749C9684843401EFDD270470B
:100CE000044908B54A6800924A68009BD21A8242B9
:100CF000FAD308BD10000020340000200FE000E00F
:100D0000C0C62D0070B505464FF40051FB48FFF7F3
:100D1000D0FDFB4C04212046FFF7CDFD2946F948C4
:100D200000F0FDFE2046BDE870400421FFF7C1BD84
:100D300070B505464FF40051F048FFF7BCFDF04C8C
:100D400004212046FFF7B7FD2946EE4800F0E7FEF4
:100D50002046BDE870400421FFF7ABBD2DE9F0410E
:100D600007461C4615460E462A20FFF7E1FF380AC3
:100D7000FFF7C8FFF8B2FFF7C5FF280AFFF7C2FF69
:100D8000E8B2FFF7BFFF2B20FFF7D2FF300AFFF7D3
:100D9000B9FFF0B2FFF7B6FF200AFFF7B3FFE0B2EA
:100DA000BDE8F041AEE72DE9F041050AC7B2D648EB
:100DB00041880088491E8BB2401E82B2002108463D
:100DC000FFF7CCFF2C20FFF7B3FF00244FF496363B
:100DD0002846FFF797FF3846FFF794FF641CB4429C
:100DE000F6D3BDE8F08101B5009801E0401E009007
:100DF0000028FBD108BD10B54FF48051BF48FFF764
:100E000058FD0120FFF794FFC048FFF7ECFFCB200F
:100E1000FFF78EFF3920FFF775FF2C20FFF772FFD9
:100E20000020FFF76FFF3420FFF76CFF0220FFF771
:100E300069FFCF20FFF77CFF0020FFF763FFC12091
:100E4000FFF760FF3020FFF75DFFE820FFF770FF3E
:100E50008520FFF757FF0020FFF754FF7820FFF7AA
:100E600051FFEA20FFF764FF0020FFF74BFF00204F
:100E7000FFF748FFED20FFF75BFF6420FFF742FF1D
:100E80000320FFF73FFF1220FFF73CFF8120FFF711
:100E900039FFF720FFF74CFF2020FFF733FFC0207A
:100EA000FFF746FF2320FFF72DFFC120FFF740FF8C
:100EB0001020FFF727FFC520FFF73AFF3E20FFF77E
:100EC00021FF2820FFF71EFFC720FFF731FF8620F4
:100ED000FFF718FF3620FFF72BFF4820FFF712FF20
:100EE0003A20FFF725FF5520FFF70CFFB120FFF751
:100EF0001FFF0020FFF706FF1820FFF703FFB620B3
:100F0000FFF716FF0820FFF7FDFE8220FFF7FAFE2D
:100F10002720FFF7F7FEF220FFF70AFF0020FFF778
:100F2000F1FE2A20FFF704FF0020FFF7EBFE002070
:100F3000FFF7E8FE0020FFF7E5FEEF20FFF7E2FEF7
:100F40002B20FFF7F5FE0020FFF7DCFE0020FFF767
:100F5000D9FE0120FFF7D6FE3F20FFF7D3FE262063
:100F6000FFF7E6FE0120FFF7CDFEE020FFF7E0FEF1
:100F70000F20FFF7C7FE3120FFF7C4FE2B20FFF73D
:100F8000C1FE0C20FFF7BEFE0E20FFF7BBFE0820BF
:100F9000FFF7B8FE4E20FFF7B5FEF120FFF7B2FED7
:100FA0003720FFF7AFFE0720FFF7ACFE1020FFF75A
:100FB000A9FE0320FFF7A6FE0E20FFF7A3FE0920DF
:100FC000FFF7A0FE0020FFF79DFEE120FFF7B0FE37
:100FD0000020FFF797FE0E20FFF794FE1420FFF786
:100FE00091FE0320FFF78EFE1120FFF78BFE0720F6
:100FF000FFF788FE3120FFF785FEC120FFF782FE54
:101000004820FFF77FFE0820FFF77CFE0F20FFF748
:1010100079FE0C20FFF776FE3120FFF773FE3620B5
:10102000FFF770FE0F20FFF76DFE1120FFF780FE27
:101030003748FFF7D8FE2920FFF77AFEBDE81040B9
:101040002C2075E62DE9FC4101210820FFF789FAE3
:101050004FF40050009002208DF8050001258DF816
:1010600004500024254E8DF806408DF8074069464F
:101070003046FFF7B9FB01210420FFF772FA042084
:101080001F4F009069463846FFF7AEFB012108204C
:10109000FFF767FA280300908DF80750694630463D
:1010A000FFF7A2FB04213846FFF703FC0021154897
:1010B00000F016FDFFF79FFE1348F021001F44804B
:1010C0000480001D01804FF4A071418005714FF62E
:1010D000FF70FFF768FEBDE8FC8110B514460B46B3
:1010E0000246FFF73BFE2C20FFF722FE200AFFF707
:1010F00009FEE0B2BDE8104004E60000000C02402A
:1011000000080240005001402C00002080841E0096
:1011100040420F002DE9F04104463620FFF708FE5B
:10112000FE4DF0274FF4A07634B1012C06D0022CEE
:101130000BD0032C0BD00DE0582000E08820FFF7E7
:10114000E1FD2F806E80012007E0282000E0E820EC
:10115000FFF7D8FD2E806F800020287141E62DE931
:10116000F05FDFF8B883DDE90ABAA8F10408914618
:10117000A8F80000A8F802101A781E461044E74AA2
:101180001288904206D972781144A8F80210002102
:10119000A8F8001000251EE0A9F1200111FB005065
:1011A0007268002432F8107011E007FA04F00004AD
:1011B000B8F80210B8F800002944204489B280B27F
:1011C00001D55A4600E05246FFF787FF641C30788D
:1011D000A042EAD86D1C7078A842DDD83078B8F803
:1011E00000201044A8F80000BDE8F09F2DE9FC475E
:1011F000CA4DDDE90A982D1F1F4628801446064671
:1012000069800BE00A2A0ED00D2A15D0CDE900988E
:101210003B4669882888641CFFF7A1FF2278002AD2
:10122000F0D1BDE8FC8768887978401C0844688064
:1012300060780D2802D02E80641CEFE70020288003
:10124000641CF9E730B54D7800241D8002E00B786E
:1012500023449CB210F8013B002BF8D1148030BD20
:101260002DE9FC5F9046AD4A0C46054611881F46A5
:10127000481EA94200D885B2414501D81FFA80F81E
:101280005188481EA14200D884B2B94200D887B222
:10129000454502D2A8EB050001E0A5EB08000FFAD6
:1012A00080FABC4201D2381B00E0E01B0FFA80F943
:1012B0004FF0FF30454501D2012100E00146019188
:1012C000BC4200D2012051460090CA4501DD0846CB
:1012D00001E0C9F1000000EBD070401006B2CAF185
:1012E000000B214628460C9AFFF7F7FE454501D131
:1012F000BC4211D030465E4505DDA0EB09010EB2BF
:10130000019929448DB24845EBDA06EB0A0006B292
:101310000098204484B2E4E7BDE8FC9F2DE9F8433F
:101320001D46089C16460F4680460B460094FFF764
:1013300097FF42462B46394610460094FFF790FF30
:1013400032462B46394610460094FFF789FF2B465C
:101350003246194640460094FFF782FFBDE8F88305
:101360002DE9F8431D4617460C468046089E08E0C6
:1013700023463A46194640460096FFF771FF641C23
:10138000A4B2AC42F4D3E9E72DE9FF4F0746C2F11E
:10139000010014460FFA80F8C2EBC43040000FFA87
:1013A00080F983B00E46081981B24FF0010A00257A
:1013B000B8B2069AFFF791FE301B81B2B8B2069A16
:1013C000FFF78BFE3819B1B280B2069AFFF785FE9F
:1013D000B1B2381B56E0B8F1000F09DB09F1020089
:1013E0000FFA80F9641E08EB090024B20FFA80F8A6
:1013F0000AF102000FFA80FA6D1C08EB0A002DB208
:101400000FFA80F87819019006EB040B1FFA8BF1A4
:1014100080B2069AFFF761FE781B00901FFA8BF1ED
:1014200080B2069AFFF759FE0198A6EB040B1FFA4B
:101430008BF180B2069AFFF750FE00981FFA8BF1ED
:1014400080B2069AFFF749FE3819019006EB050BAA
:101450001FFA8BF180B2069AFFF73FFE381B00900F
:101460001FFA8BF180B2069AFFF737FE0198A6EBC0
:10147000050B1FFA8BF180B2069AFFF72EFE00983B
:101480001FFA8BF180B2069AFFF727FEA542A2DB76
:1014900007B0BDE8F08F2DE9FE4F0746C2F101000D
:1014A00014460FFA80F8C2EBC43040000FFA80FAFD
:1014B0000E46081981B299464FF0010B0025B8B2CB
:1014C0001A46FFF70AFE301B81B2B8B24A46FFF750
:1014D00004FE38190290B1B280B24A46FFF7FDFD12
:1014E000381B0190B1B280B24A46FFF7F6FD029870
:1014F000B3B2CDF8009082B2B1B243E0B8F1000FC0
:1015000009DB0AF102000FFA80FA641E08EB0A00F8
:1015100024B20FFA80F86D1C2DB201E02C000020DF
:101520000BF102000FFA80FB08EB0B000FFA80F8BA
:10153000781982B20290781BCDE9009031198BB2F4
:1015400089B280B2FFF78CFE0198311B82B20298FB
:101550008BB2CDF8009089B280B2FFF781FE381BC4
:1015600082B202903819CDE9009071198BB289B21C
:1015700080B2FFF775FE711B02988BB2CDF8009018
:1015800082B289B2019880B2FFF76AFEA542B5DB4C
:10159000BDE8FE8F30B587B001214020FEF7E1FFA6
:1015A00000248DF81A408DF81B4003208DF8190097
:1015B00002208DF818004FF4E040FF4D059005A97A
:1015C0002846FFF711F905220D212846FFF780F97B
:1015D00005220C212846FFF77BF905220E2128461B
:1015E000FFF776F901214805FEF7E3FF6846FFF7AC
:1015F0004AFA2020ADF80C00ADF80040ADF80440E8
:101600004FF48270ADF80E40ADF80200ADF8064020
:10161000ADF808406815E94CADF80A006946204667
:10162000FFF7B2F901212046FFF742FA07B030BDBB
:1016300030B587B000248DF81A408DF81B40032187
:101640008DF819100221DE4D8DF8181010B1012807
:1016500018D03CE001212020FEF783FF4FF460709A
:10166000059005A92846FFF7BFF80522072128465F
:10167000FFF72EF9052208212846FFF729F9052250
:10168000092121E001212020FEF76BFF01218020AC
:10169000FEF767FFC020059005A92846FFF7A4F8CC
:1016A0004FF40061059105A92846FFF79DF8052232
:1016B0000B212846FFF70CF9C24D052206212846CA
:1016C000FFF706F9052207212846FFF701F9012156
:1016D0000805FEF76EFF6846FFF7D5F92020ADF844
:1016E0000C00ADF80040ADF804404FF48270ADF846
:1016F0000E40ADF80200ADF80640ADF808404FF4DA
:101700000070B14CADF80A0069462046FFF73CF97D
:1017100001212046FFF7CCF988E730B587B00024D7
:101720008DF81A408DF81B4003218DF81910022105
:10173000A64D8DF8181010B1012817D030E0012106
:101740001020FEF70EFF6420059005A92846FFF73C
:101750004BF8052202212846FFF7BAF80522114668
:101760002846FFF7B5F80522062116E001211020D2
:10177000FEF7F7FE4FF4E040059005A92846FFF775
:1017800033F805220C212846FFF7A2F805220D2187
:101790002846FFF79DF805220E212846FFF798F806
:1017A00001214803FEF705FF6846FFF76CF920208A
:1017B000ADF80C00ADF80040ADF804404FF4827075
:1017C000ADF80E40ADF80200ADF80640ADF80840A7
:1017D0004FF400707E4CADF80A0069462046FFF7D2
:1017E000D3F801212046FFF763F91FE730B587B032
:1017F00000248DF81A408DF81B4003218DF8191034
:1018000002218DF8181010B1012818D032E0012102
:101810000220FEF7A6FE38206E4D059005A9284649
:10182000FEF7E2FF062203212846FFF751F80622C1
:1018300004212846FFF74CF80622052117E0012174
:101840000420FEF78EFE4FF4E050634D059005A98D
:101850002846FEF7C9FF06220A212846FFF738F876
:1018600006220B212846FFF733F806220C212846D2
:10187000FFF72EF80121C803FEF791FE6846FFF737
:1018800002F92020ADF80C00ADF80040ADF804409E
:101890004FF48270ADF80E40ADF80200ADF806408E
:1018A000ADF808404FF400704C4CADF80A006946A2
:1018B0002046FFF769F801212046FFF7F9F8B5E661
:1018C00070B588B000248DF8064001218DF807100E
:1018D00003218DF8051002213E4D8DF8041020B132
:1018E000012824D002283AD053E001210220FEF73B
:1018F00038FE01210420FEF734FE0C20364E009005
:1019000069463046FEF770FF30150090694628465C
:10191000FEF76AFF052202213046FEF7D9FF0522B5
:1019200003213046FEF7D4FF05220A212EE00121D3
:101930000220FEF716FE4FF46040009069462846EC
:10194000FEF752FF05220D212846FEF7C1FF0522B2
:101950000E212846FEF7BCFF05220F2116E00121CB
:101960000802FEF7FEFD0D20009069462846FEF7AE
:101970003BFF1B4D052200212846FEF7A9FF05224B
:1019800002212846FEF7A4FF052203212846FEF780
:101990009FFF01218803FEF702FE02A8FFF773F8FC
:1019A0002020ADF81400ADF80C40ADF80840ADF8BB
:1019B00016404FF4827015E00018024000540140B8
:1019C00000140240001C0240005001400010024080
:1019D000003401400004024000080240003C004086
:1019E00000200240ADF80A00ADF80E40ADF81040FE
:1019F0004FF40070984CADF8120002A92046FEF793
:101A0000C3FF01212046FFF753F808B070BD30B581
:101A100087B000248DF81A408DF81B4003218DF803
:101A2000191002218DF8181010B1012818D031E0DA
:101A300001210846FEF795FDE020884D059005A997
:101A40002846FEF7D1FE052211462846FEF740FF44
:101A5000052206212846FEF73BFF0522072116E056
:101A600001210220FEF77DFD38207D4D059005A95E
:101A70002846FEF7B9FE052203212846FEF728FF77
:101A8000052204212846FEF723FF05221146284699
:101A9000FEF71EFF01210803FEF78BFD6846FEF7E7
:101AA000F2FF2020ADF80C00ADF80040ADF8044086
:101AB0004FF48270ADF80E40ADF80200ADF806406C
:101AC000ADF808404FF40070664CADF80A00694666
:101AD0002046FEF759FF01212046FEF7E9FFA5E564
:101AE000604A904201D1084691E75B4A904201D199
:101AF0000846E5E65C4A904201D1084676E65B4A34
:101B0000904201D1084608E6594A904201D1084660
:101B10008EE5584A904201D108463BE5704710B522
:101B20000446818102212046FFF755F80028F9D0AC
:101B300001212046FFF74FF80028F9D080212046E8
:101B4000FFF749F80028F9D1A089C0B210BD2DE9EE
:101B5000F0411D4616460F468046002406E0395DDA
:101B60004046FFF7DCFF3055641CA4B2AC42F6D30C
:101B7000BDE8F0812DE9F04115460E4607460024E8
:101B800005E0315D3846FFF7CAFF641CA4B2AC42E1
:101B9000F7D3EDE72DE9F0411D4617460E46804686
:101BA000002406E039464046FFF7B9FF3055641C73
:101BB000A4B2AC42F6D3DBE710B504468181022122
:101BC0002046FFF708F80028F9D001212046FFF74A
:101BD00002F80028F9D080212046FEF7FCFF0028FB
:101BE000F9D1A08910BD2DE9F0411D4616460F46DA
:101BF0008046002408E037F814104046FFF7DCFF69
:101C000026F81400641CA4B2AC42F4D3B0E72DE96A
:101C1000F04115460E460746002406E036F814103B
:101C20003846FFF7C9FF641CA4B2AC42F6D39FE765
:101C30002DE9F0411D4617460E468046002407E078
:101C400039464046FFF7B8FF26F81400641CA4B2DA
:101C5000AC42F5D38CE700000038004000000240A1
:101C60000004024000300140003C004000340140CC
:101C700000500140005401401CB500F0C4F8FFF7CB
:101C8000E1F90320FFF746FA4AF25420FFF78BF8F8
:101C90003C214FF4FC6328220846FFF775FB3C21EA
:101CA0004FF4784323220846FFF7F5FB1F200090EE
:101CB0006423DC2214217820FFF730FB00245A2310
:101CC000D2221E2182200094FFF74AFB05207823B0
:101CD00000904FF49B7219460A20FFF7C1FA40F2B8
:101CE0001D55084B08A282214120CDE90045FFF790
:101CF0007DFA044B09A296214120CDE90045FFF76A
:101D000075FAFEE72000002053544D33324634204C
:101D1000446973636F7665727900000048656C6C86
:101D20006F20416D6F626273000000007047FEE734
:101D3000FEE7FEE7FEE7704770477047704710B553
:101D4000FEF782FF10BD00001CB500215B4A009128
:101D50000191106840F4803010604FF4A043106887
:101D600000F4003001900098401C0090019810B9D8
:101D700000989842F3D11068800342D50120019069
:101D80004E484030016841F0805101604C4908687C
:101D900040F4404008604948083003680360036825
:101DA00043F400430360036843F4A0530360041F3B
:101DB000444B2360136843F08073136013689B01E6
:101DC000FCD50A6842F480320A604A68D203FCD526
:101DD0000A6842F400320A604A689203FCD53A4A23
:101DE00040F205711160016821F003010160016892
:101DF00041F0020101600168C1F381010229FAD1B9
:101E00001CBD01911CBD314810B5016841F4700141
:101E100001602A48016841F001010160274A002160
:101E20000832116002682A4B1A400260031D294AD9
:101E30001A60026822F48022026020480C3001609F
:101E4000FFF782FF21494FF000608039086010BD24
:101E500070B51A4D083528681F4B204910F00C004A
:101E600004D05E10042803D0082803D00B601BE0C8
:101E70000E6019E0114A121D1068C0F380541068FA
:101E800000F03F0014B1B6FBF0F001E0B3FBF0F05E
:101E900013681268C3F388135843C2F30142521CFB
:101EA0005200B0FBF2F0086028680C4AC0F303103F
:101EB000121D105C0A68C2400A6070BD0038024002
:101EC00000700040085A4007003C024088ED00E0E6
:101ED000FFFFF6FE103000240024F4003400002040
:101EE000704770477047754600F028F8AE46050009
:101EF0006946534620F00700854618B020B5FEF726
:101F0000B3F9BDE820404FF000064FF000074FF056
:101F100000084FF0000B21F00701AC46ACE8C00907
:101F2000ACE8C009ACE8C009ACE8C0098D46704710
:101F30000446AFF300802046FEF781F90048704761
:101F40004800002001491820ABBEFEE72600020031
:101F500070474FF04070E1EE100A7047000000003B
:101F60000000000000000000000000000000000071
:101F70000000000000000000000000000000000061
:101F80000000000C000C000C000C000C000C000CFD
:101F9000000C000C000C000C0000000C000C0000F9
:101FA000000000000000001B001B001B001B001BAA
:101FB0000000000000000000000000000000000021
:101FC0000000000000000000000080198019801946
:101FD0008019C07FC07F80190033C07FC07F00336D
:101FE0000033003300330000000000000000001E3A
:101FF000003F807580650074003C001E000780056E
:10200000806580658075003F001E000400040000AC
:102010000000007000D840D8C0D880D900730006F6
:10202000000C801BC036C066C046C006800300009E
:10203000000000000000001E003F003300330033AA
:10204000001E000CC03CC066806380618063C03E9F
:10205000801C0000000000000000000C000C000CC0
:10206000000C000C00000000000000000000000058
:1020700000000000000000000000000080000001DF
:102080000003000600060004000C000C000C000C0D
:10209000000C000C00040006000600030001800094
:1020A000002000100018000C000C000400060006C0
:1020B00000060006000600060004000C000C0018D4
:1020C000001000200000000C002D003F001E003317
:1020D0000000000000000000000000000000000000
:1020E0000000000000000000000000000000000CE4
:1020F000000C000C000CC0FFC0FF000C000C000C1A
:10210000000C0000000000000000000000000000C3
:1021100000000000000000000000000000000000BF
:10212000000000000000000C000C00040004000887
:10213000000000000000000000000000000000009F
:102140000000001E001E0000000000000000000053
:10215000000000000000000000000000000000007F
:102160000000000000000000000000000000000C63
:10217000000C00000000000000000003000300034A
:102180000006000600060006000C000C000C000C07
:102190000018001800180000000000000000001ED9
:1021A000003F0033806180618061806D806D80615F
:1021B000806180610033003F001E000000000000CD
:1021C00000000006000E001E003600260006000675
:1021D00000060006000600060006000600060000D5
:1021E000000000000000001E003F807380618061DD
:1021F000800100030006000C001800300060807FA2
:10220000807F0000000000000000001C003E006312
:1022100000630003000E000E000380018001806156
:102220008073003F001E0000000000000000000658
:10223000000E000E001E001E00160036003600665E
:10224000807F807F0006000600060000000000007E
:102250000000007F007F006000600060006E007F73
:1022600080638001800180618073003F001E000058
:10227000000000000000001E003F8033806100600D
:10228000006E007F80738061806180618033003FD9
:10229000001E0000000000000000807F807F8001A1
:1022A0000003000300060006000C000C000C0008F0
:1022B0000018001800180000000000000000001EB8
:1022C000003F8063806180610021001E003F8061CB
:1022D000806180618061003F001E000000000000FE
:1022E0000000001E003F0073806180618061807388
:1022F000803F801D800180610073003F001E000050
:102300000000000000000000000000000000000CC1
:10231000000C000000000000000000000000000CA5
:10232000000C0000000000000000000000000000A1
:1023300000000000000C000C000000000000000085
:102340000000000C000C0004000400080000000065
:102350000000000080008003000E0038006000389C
:10236000000E80038000000000000000000000005C
:1023700000000000000000000000807F807F00005F
:102380000000807F807F000000000000000000004F
:10239000000000000000000000000000004000708D
:1023A000001C000780010007001C007000400000B6
:1023B00000000000000000000000001F803FC0710E
:1023C000C060C000C00180030007000E000C000CBC
:1023D0000000000C000C0000000000000000001EC7
:1023E000003F803180718063806F806D806D806F71
:1023F000806700600032003E001C0000000000000A
:102400000000000E000E001B001B001B001B803193
:102410008031803F803F8031C060C060C06000007C
:10242000000000000000007C007E00630063006389
:102430000063007E007E0063806180618063007FB6
:10244000007E0000000000000000001E003F803100
:10245000806100600060006000600060006080617A
:102460008031003F001E0000000000000000007CE2
:10247000007F006380638061806180618061806132
:10248000806100630063007E007C000000000000AB
:102490000000807F807F0060006000600060007F3F
:1024A000007F0060006000600060807F807F00002F
:1024B000000000000000807F807F006000600060FE
:1024C0000060007F007F00600060006000600060CE
:1024D00000600000000000000000001E003F80318E
:1024E0008061006000600060806380638061806163
:1024F0008031803F001E000000000000000080616D
:1025000080618061806180618061807F807F806187
:102510008061806180618061806100000000000056
:102520000000003F003F000C000C000C000C000CF1
:10253000000C000C000C000C000C003F003F0000E1
:102540000000000000008001800180018001800106
:102550008001800180018001806180618073003F83
:10256000001E0000000000000000C06080610063E9
:1025700000660066006C0078007C00660066006300
:1025800080618061C0600000000000000000006009
:10259000006000600060006000600060006000603B
:1025A000006000600060807F807F0000000000000D
:1025B0000000C071C071C07BC07AC06AC06AC06EC2
:1025C000C064C060C060C060C060C060C060000027
:1025D000000000000000807180718079807980792E
:1025E000806D806D806D80658067806780678063A7
:1025F00080630000000000000000001E003F003368
:1026000080618061806180618061806180618061C2
:102610000033003F001E0000000000000000007EAC
:10262000007F80638061806180618063007F007EC5
:1026300000600060006000600060000000000000BA
:102640000000001E003F0033806180618061806176
:1026500080618061806580670033803F401E00009C
:10266000000000000000007E007F806380618061C8
:102670008063007F007E006600630063806180618C
:10268000C0600000000000000000000E001F80314C
:10269000803100300038001E0007800380618061B7
:1026A0008031003F001E0000000000000000C0FF5D
:1026B000C0FF000C000C000C000C000C000C000C07
:1026C000000C000C000C000C000C000000000000CE
:1026D00000008061806180618061806180618061D3
:1026E00080618061806180618073003F001E000016
:1026F000000000000000C060C060C0608031803118
:102700008031001B001B001B001B000E000E000E82
:1027100000040000000000000000C0C0C0C0C0C035
:10272000C0C0C0C0C0CC804C804C805E8052805203
:102730008073806180610000000000000000C0C064
:10274000806080610033003B001E000C000C001E06
:10275000001F003B80718061C0C0000000000000CD
:102760000000C0C08061806100330033001E001E85
:10277000000C000C000C000C000C000C000C000005
:10278000000000000000803F803F80010003000344
:102790000006000C000C0018001800300060807F5C
:1027A000807F000000000000000F000F000C000CF4
:1027B000000C000C000C000C000C000C000C000CB9
:1027C000000C000C000C000C000F000F00000018A3
:1027D00000180018000C000C000C000C000600068D
:1027E00000060006000300030003000000000000D4
:1027F000001E001E00060006000600060006000679
:102800000006000600060006000600060006000698
:10281000001E001E0000000C000C001E0012003301
:1028200000338061806100000000000000000000B3
:102830000000000000000000000000000000000098
:102840000000000000000000000000000000000088
:102850000000000000000000E0FF00000000003861
:102860000018000C00000000000000000000000044
:102870000000000000000000000000000000000058
:1028800000000000000000000000001F803F806189
:102890008001801F803F80618063807FC03800009E
:1028A0000000000000000060006000600060006E3A
:1028B000007F807380618061806180618073007FB0
:1028C000006E00000000000000000000000000009A
:1028D0000000001E003F8073806100600060806126
:1028E0008073003F001E0000000000000000800117
:1028F000800180018001801D803F80738061806144
:10290000806180618073803F801D000000000000B6
:1029100000000000000000000000001E003F0073E7
:102920008061807F807F00608071003F001E00001A
:10293000000000000000C007C00F000C000C807FEA
:10294000807F000C000C000C000C000C000C000C34
:10295000000C00000000000000000000000000006B
:10296000801D803F807380618061806180618073A1
:10297000803F801D80018063007F003E000000607A
:10298000006000600060006F807F80718061806106
:1029900080618061806180618061000000000000D2
:1029A00000000006000600000000003E003E000699
:1029B00000060006000600060006000600060000ED
:1029C000000000000006000600000000003E003E7F
:1029D00000060006000600060006000600060006C7
:1029E00000060046007E003C0000006000600060C1
:1029F0000060806100630066006C007C007600630C
:102A000000638061C0600000000000000000003E24
:102A1000003E00060006000600060006000600064E
:102A20000006000600060006000600000000000088
:102A30000000000000000000000080DDC0FFC0CEEC
:102A4000C0CCC0CCC0CCC0CCC0CCC0CCC0CC0000B2
:102A50000000000000000000000000000000006F07
:102A6000807F807180618061806180618061806130
:102A70008061000000000000000000000000000075
:102A80000000001E003F8073806180618061806172
:102A90008073003F001E00000000000000000000E6
:102AA00000000000006E007F8073806180618061A3
:102AB00080618073007F006E0060006000600060D5
:102AC0000000000000000000801D803F80738061D6
:102AD0008061806180618073803F801D8001800102
:102AE000800180010000000000000000000000677D
:102AF000803F0039003000300030003000300030BE
:102B00000030000000000000000000000000000095
:102B10000000001E803F80610060007F803F8001D8
:102B20008061007F001E0000000000000000000027
:102B3000000800180018007F007F00180018001817
:102B4000001800180018801F800F0000000000000F
:102B500000000000000000000000806180618061D2
:102B600080618061806180618063807F803D000042
:102B70000000000000000000000000000000C06035
:102B8000803180318031001B001B001B000E000EC5
:102B9000000600000000000000000000000000002F
:102BA000000080DD80DD80DD005500550055007798
:102BB000007700220022000000000000000000005A
:102BC000000000000000806100330033001E000C94
:102BD000000C001E00330033806100000000000084
:102BE000000000000000000080618061803100333F
:102BF0000033001B001B001B000E000E000E001C0B
:102C0000007C007000000000000000000000C07F99
:102C1000C07F800100030006000C00180030C07F58
:102C2000C07F00000000000080038007000600064F
:102C3000000600060006000E001C001C000E000628
:102C40000006000600060006800780030006000656
:102C50000006000600060006000600060006000644
:102C60000006000600060006000600060006000634
:102C70000038003C000C000C000C000C000C000E96
:102C800000070007000E000C000C000C000C000CEC
:102C9000003C0038000000000000000000000000C0
:102CA00000008038807F0047000000000000000026
:102CB0000000000000000000D82C000800000020E8
:102CC00048000000E8010008202D0008480000200E
:102CD0006006000004020008000000000102030476
:102CE00001020304060708090000000000000000BC
:102CF00000000000000000000B1200005C1F000834
:102D00000000000000000000000000000095BA0A6A
:102D1000000000000000000001020304060708098B
:040000050800024DA0
:00000001FF
