:020000040800F2
:1000000050040020B52000084106000843060008FF
:1000100045060008470600084906000800000000E1
:100020000000000000000000000000004B06000877
:100030004D060008000000004F06000853060008A7
:10004000CF200008CF200008CF200008CF200008D4
:10005000CF200008CF200008CF200008CF200008C4
:10006000CF200008CF200008CF200008CF200008B4
:10007000CF200008CF200008CF200008CF200008A4
:10008000CF200008CF200008CF200008CF20000894
:10009000CF200008CF200008CF200008CF20000884
:1000A000CF200008CF200008CF200008CF20000874
:1000B000CF200008CF200008CF200008CF20000864
:1000C000CF200008CF200008CF200008CF20000854
:1000D000CF2000085B060008CF200008CF200008D2
:1000E000CF200008CF200008CF200008CF20000834
:1000F000CF200008CF200008CF200008CF20000824
:10010000CF200008CF200008CF200008CF20000813
:10011000CF200008CF200008CF200008CF20000803
:10012000CF200008CF200008CF200008CF200008F3
:10013000CF200008CF200008CF200008CF200008E3
:10014000CF200008CF200008CF200008CF200008D3
:10015000CF200008CF200008CF200008CF200008C3
:10016000CF200008CF200008CF200008CF200008B3
:10017000CF200008CF200008CF200008CF200008A3
:10018000CF200008CF200008CF200008CF20000893
:10019000CF200008CF200008CF200008CF20000883
:1001A000CF200008CF200008CF200008DFF80CD0B7
:1001B00004F0B8F900480047470400085004002044
:1001C00070B59CB00121C74802F049F901218802AD
:1001D00002F06DF94FF080600090C3480190C34871
:1001E00002A90024012581E83100E802CDE906409A
:1001F00080000890401109900AA90594400281E806
:100200003100BB4E0D94694630460E9403F0BCFDA0
:100210000121304603F0F1FD0820199003208DF8EC
:1002200068008DF86B4019A9B24802F05BFA15948A
:100230001694179415A8189403F0E5FE0F948DF802
:100240004040119412941394A74C8DF841504C3CAB
:100250008DF850500FA9204603F0AAFE002301227A
:100260000D21204603F019FF0121204603F092FFE3
:100270000121204603F084FF0121204603F0DAFE2D
:100280001CB070BD70B5994C208804F0A1F89FEDAA
:100290009A1B53EC112B04F029F804F0A6F8E08126
:1002A000A089401C80B2A08104283AD10020A081FE
:1002B00000F035FF6088DA23401C80B20222322130
:1002C00001F0F3FA4FF4FC66304600F028FF608836
:1002D0000625401C81B26180E8290CD96580002088
:1002E00000F01DFF0123DA223221608801F01FF89F
:1002F000304600F014FF6089401C80B26081E189C3
:10030000E828C1F1F9018BB2E38001D9658125812B
:100310006289A188208901F044FB60892081E088FE
:10032000A08070BD2DE9F041002000F0E2FE6420C5
:1003300000F0FBFE4DF6FB66304600F06EFF1F201E
:1003400000F0F0FE002000F0EAFEDB23E522312180
:10035000052001F0AAFA4BF2B654204600F0DFFE69
:10036000E523DB223121052001F01BF8204600F0B7
:10037000D6FE3023EA221946042001F012FB4FF486
:10038000867704223B463021104601F00AFB48F2F2
:10039000104000F0C4FE3123E9221946052001F087
:1003A00000FB7D1E05222B463121104601F0F9FA93
:1003B0004FF6FF7000F0B3FEAC1CEB222346312158
:1003C000104601F0EEFA2346EB221946052001F013
:1003D000E8FA41F6E30000F0A2FE45242346E922B4
:1003E0001946062001F0DDFA1434A4B2BC42F5D956
:1003F0002C2422462B463221104601F0D2FA263414
:10040000A4B2E92CF5D3304600F08CFE1F2000F09A
:1004100086FE3B4800F01CFE00F098FE39A100204B
:1004200000F039FF00F092FEC0883BA100F033FFDE
:10043000012000F05EFE782000F077FEBDE8F0417C
:10044000002000F0EABE00F079F800F0B5FD00F001
:1004500002FE012002F0E7FEFFF764FFFFF7B0FEA7
:1004600021484C3803F053FE00F003F8FFF70AFF71
:10047000FAE710B51D4C8EB0208840F6B8314843DD
:1004800040F6FF71B0FBF1F02061002000F031FE7A
:100490004DF6FB6000F046FE1F2000F040FE216993
:1004A0004FF47A70B1FBF0F22169B1FBF0F300FB7D
:1004B00013106421B0FBF1F31CA1684604F054F85A
:1004C00000F044FEC0884FF6FF7100EB400001EAE7
:1004D0008000694600F0DFFE012000F00AFE0EB049
:1004E00010BD0000040040004C220140000000202C
:1004F0001064024000080240166441166441A63FA1
:100500003800002020204543472057617665666FFC
:10051000726D2020000000002020202044697370AC
:100520006C617920202020202000000020414443DD
:10053000333D25642E2531642056200008B501F096
:1005400023FE012001F042FE01F05DFE0128FBD1F7
:1005500007200821009002234FF4B472C80401F070
:1005600082FE012001F08FFE022001F0BCFE02E0BD
:10057000002001F0C6FE01F0BEFE0828F8D14FF4BD
:10058000A05001F0C6FEBDE808404FF4805001F0D5
:10059000C8BE10B586B00121102001F088FF0121EE
:1005A000084601F05CFF02208DF8140001218DF84F
:1005B00017108DF815004FF4C0601F4C049004A96B
:1005C000204602F08FF807220921204602F0FEF8AB
:1005D00007220A21204602F0F9F84FF4E13000909A
:1005E00000200C21ADF80A10ADF80400134CADF852
:1005F0000C00ADF80800ADF806006946204602F090
:1006000050F90121204602F0BDF906B010BD08B531
:100610004FF4A06001F060FD03208DF8010002207E
:100620008DF8020025208DF8000001208DF80300D0
:10063000684601F056FD08BD000002400010014070
:100640007047FEE7FEE7FEE7FEE77047704770473A
:10065000704710B5FFF7FCFF10BD10B5084C202106
:10066000204602F046FA012808D1204602F0B4F9EB
:10067000C1B22046BDE8104002F0AAB910BD00008A
:10068000001001401CB500215B4A009101911068E7
:1006900040F4803010604FF4A043106800F4003044
:1006A00001900098401C0090019810B90098984261
:1006B000F3D11068800342D5012001904E484030AC
:1006C000016841F0805101604C49086840F44040A5
:1006D00008604948083003680360036843F4004336
:1006E0000360036843F4A0530360041F444B23607A
:1006F000136843F08073136013689B01FCD50A688C
:1007000042F480320A604A68D203FCD50A6842F497
:1007100000320A604A689203FCD53A4A40F20571F9
:100720001160016821F003010160016841F00201DC
:1007300001600168C1F381010229FAD11CBD019158
:100740001CBD314810B5016841F4700101602A48B0
:10075000016841F001010160274A0021083211605F
:1007600002682A4B1A400260031D294A1A60026877
:1007700022F48022026020480C300160FFF782FFE3
:1007800021494FF000608039086010BD70B51A4DE6
:10079000083528681F4B204910F00C0004D05E106B
:1007A000042803D0082803D00B601BE00E6019E07A
:1007B000114A121D1068C0F38054106800F03F0009
:1007C00014B1B6FBF0F001E0B3FBF0F0136812686F
:1007D000C3F388135843C2F30142521C5200B0FBCA
:1007E000F2F0086028680C4AC0F30310121D105C78
:1007F0000A68C2400A6070BD0038024000700040C4
:10080000085A4007003C024088ED00E0FFFFF6FE7A
:10081000103000240024F40014000020FB4A0028BB
:100820004FF00401104601D001F0C1BF01F0C1BF7B
:1008300001F0C1BF10B5044600224FF40051F44846
:10084000FFF7F6FF0020FFF7E9FF2146F14C2046B5
:1008500002F0BEFA0221204602F0E7FA0028F9D0A1
:100860008021204602F0E1FA0028F9D1BDE81040CD
:100870000120D3E72820DDE72DE9FC412820FFF700
:10088000D9FFE44C0021204602F03CFA204602F059
:100890006FF900214FF4801001F009FE04200024BC
:1008A000DA4E00908DF804408DF8074069463046D6
:1008B00001F018FF8020DFF8608300906946404611
:1008C00001F010FFB01500906946404601F00AFFA4
:1008D000701500906946404601F004FFCF4F00229A
:1008E0000321384601F072FF00220421384601F04E
:1008F0006DFF00220621384601F068FF00220B211F
:10090000384601F063FF00220C21384601F05EFFFB
:1009100002258DF8045041F658008DF805500090DE
:100920008DF806408DF807406946384601F0DAFE3A
:10093000BB4F00221146384601F048FF002201213A
:10094000384601F043FF00220821384601F03EFFFF
:1009500000220921384601F039FF00220A213846D9
:1009600001F034FF00220B21384601F02FFF8DF8F3
:10097000045040F603708DF8055000908DF8064045
:100980008DF807406946384601F0ACFE002206218A
:10099000304601F01BFF00220721304601F016FF10
:1009A00000220A21304601F011FF8DF804504FF467
:1009B00098608DF8055000908DF806408DF807403E
:1009C0006946304601F08EFE914E002203213046EA
:1009D00001F0FCFE00220621304601F0F7FE8DF802
:1009E000045048208DF8055000908DF806408DF891
:1009F00007406946304601F075FE00220A21404654
:100A000001F0E4FE8DF8045068028DF80550009066
:100A10008DF806408DF807406946404601F062FEB9
:100A2000804E00220621304601F0D0FE0022072130
:100A3000304601F0CBFE00220A21304601F0C6FE0E
:100A400000220B21304601F0C1FE00220C2130466D
:100A500001F0BCFE8DF804504FF4E6508DF80550BF
:100A600000908DF806408DF807406946304601F049
:100A700039FEBDE8FC811CB501216F2001F0EFFCBF
:100A8000664C0E220321204601F0A0FE0E22042116
:100A9000204601F09BFE0E220621204601F096FE24
:100AA0000E220B21204601F091FE0E220C21204641
:100AB00001F08CFE02218DF805108DF80410002144
:100AC00041F658008DF8061000908DF80710694621
:100AD000204601F007FE524C09220021204601F079
:100AE00075FE09220121204601F070FE0E22082128
:100AF000204601F06BFE0E220921204601F066FE21
:100B00000E220A21204601F061FE0E220B21204612
:100B100001F05CFE40F6037100916946204601F049
:100B2000E1FD3A4C0E220621204601F04FFE0E2236
:100B30000721204601F04AFE0E220A21204601F03C
:100B400045FE4FF4986100916946204601F0CAFDC8
:100B50002F4C0E220321204601F038FE0E220621E2
:100B6000204601F033FE482100916946204601F0FD
:100B7000B9FD294C0E220A21204601F027FE21153D
:100B800000916946204601F0ADFD264C0E2206215B
:100B9000204601F01BFE0E220721204601F016FE22
:100BA00009220A21204601F011FE0E220B212046C7
:100BB00001F00CFE09220C21204601F007FE4FF443
:100BC000E65100916946204601F08CFD1CBD10B530
:100BD0000446012251030E48FFF72AFE0020FFF7CA
:100BE0001DFE21460B4C204602F0F2F80221204661
:100BF00002F01BF90028F9D08021204602F015F9F7
:100C00000028F9D1BDE81040012007E600080240A5
:100C1000000C02400050014000140240000002405D
:100C2000000402400018024010B5CA20FFF702FE7F
:100C3000C320FFF7CCFF0820FFF7C9FF5020FFF7C4
:100C4000C6FFCF20FFF7F6FD0020FFF7C0FFC12051
:100C5000FFF7BDFF3020FFF7BAFFED20FFF7EAFDF9
:100C60006420FFF7B4FF0320FFF7B1FF1220FFF766
:100C7000AEFF8120FFF7ABFFE820FFF7DBFD85200B
:100C8000FFF7A5FF0020FFF7A2FF7820FFF79FFFE7
:100C9000CB20FFF7CFFD3920FFF799FF2C20FFF77E
:100CA00096FF0020FFF793FF3420FFF790FF02200C
:100CB000FFF78DFFF720FFF7BDFD2020FFF787FF2F
:100CC000EA20FFF7B7FD0020FFF781FF0020FFF7C4
:100CD0007EFFB120FFF7AEFD0020FFF778FF1B205D
:100CE000FFF775FFB620FFF7A5FD0A20FFF76FFF9E
:100CF000A220FFF76CFFC020FFF79CFD1020FFF73C
:100D000066FFC120FFF796FD1020FFF760FFC520AA
:100D1000FFF790FD4520FFF75AFF1520FFF757FF1B
:100D2000C720FFF787FD9020FFF751FF3620FFF720
:100D300081FDC820FFF74BFFF220FFF77BFD00206D
:100D4000FFF745FFB020FFF775FDC220FFF73FFF1B
:100D5000B620FFF76FFD0A20FFF739FFA720FFF746
:100D600036FF2720FFF733FF0420FFF730FF2A204C
:100D7000FFF760FD0020FFF72AFF0020FFF727FFA5
:100D80000020FFF724FFEF20FFF721FF2B20FFF7C4
:100D900051FD0020FFF71BFF0020FFF718FF012087
:100DA000FFF715FF3F20FFF712FFF620FFF742FD88
:100DB0000120FFF70CFF0020FFF709FF0620FFF7D7
:100DC00006FF2C20FFF736FDC82000F0A8FF2620E4
:100DD000FFF730FD0120FFF7FAFEE020FFF72AFDC4
:100DE0000F20FFF7F4FE2920FFF7F1FE2420FFF784
:100DF000EEFE0C20FFF7EBFE0E20FFF7E8FE0920C9
:100E0000FFF7E5FE4E20FFF7E2FE7820FFF7DFFE5A
:100E10003C20FFF7DCFE0920FFF7D9FE1320FFF787
:100E2000D6FE0520FFF7D3FE1720FFF7D0FE1120D6
:100E3000FFF7CDFE0020FFF7CAFEE120FFF7FAFC26
:100E40000020FFF7C4FE1620FFF7C1FE1B20FFF7AE
:100E5000BEFE0420FFF7BBFE1120FFF7B8FE0720FF
:100E6000FFF7B5FE3120FFF7B2FE3320FFF7AFFEEC
:100E70004220FFF7ACFE0520FFF7A9FE0C20FFF78C
:100E8000A6FE0A20FFF7A3FE2820FFF7A0FE2F20D2
:100E9000FFF79DFE0F20FFF79AFE1120FFF7CAFC17
:100EA000C82000F03CFF2920FFF7C4FCBDE810403B
:100EB0002C20BFE470B588B00121202001F0CFFACA
:100EC0000121080501F0F3FA8020059001208DF83A
:100ED000190002208DF8180000248DF81A40FB4DEF
:100EE0008DF81B0005A9284601F0FCFBA81505900C
:100EF00005A9284601F0F6FB6E1505A928460596BA
:100F000001F0F0FB05220721284601F05FFC0522D5
:100F10000821284601F05AFC05220921284601F043
:100F200055FCEB4D284601F023FE288840061DD4D1
:100F3000ADF800404FF48270ADF802001820ADF813
:100F40000C000720ADF80440ADF80840ADF81000E3
:100F5000ADF80640ADF80A60ADF80E406946284687
:100F600001F03CFE0121284601F0CCFE08B070BD26
:100F70001CB501210C2001F072FA0420009002201F
:100F80008DF8050001208DF8040000208DF8060082
:100F9000D04C8DF807006946204601F0A3FB4FF4C2
:100FA000005100916946CC4801F09CFB01220421CC
:100FB0002046FFF73DFC1CBD00B58FB0FFF7D8FF02
:100FC0000020FFF72BFC0120FFF728FCFFF772FF42
:100FD000FFF72AFE0121880601F069FA0121C80500
:100FE00001F03DFAFFF747FD00F0F6FF0020029008
:100FF0000390009001900C900D900E900422072118
:10100000C02001F04FF94FF4003001F01CFA01202C
:1010100001F051F93D2001F0DFF80028FAD0092055
:101020000490012005901D2006900320079040F2B7
:101030000D10089040F24310099040F217100A90EA
:1010400040F247100B90684602F08EF80FB000BDDA
:10105000A249C860704730B591B01E20009040F2A0
:101060000D1001900420029040F2431003900220E2
:101070000490FF20059000200690079008900990AA
:101080004FF480600A9005200B9040F2E3100D9021
:10109000C01E0E904FF4A0700F904FF05040904C37
:1010A0000C906946204602F0F6F88E490C914FF4F8
:1010B000C0610A918A4D07210B9180356946284607
:1010C00002F0E9F8012002F0E2F80121204602F0E6
:1010D00043F90121284602F03FF9012002F0D7F838
:1010E0007E487E491030C860012002F0A8F811B097
:1010F00030BD7A4920B17B48486001208860704744
:101100004FF0504048600020F8E7744A108051804A
:101110007047724A138803805088088070476F496F
:10112000088070476D49488070476C4910B58968E0
:101130000029014608D06A48803002F0ADF9BDE8C8
:101140001040012002F0A3B86548F6E76348C06884
:1011500070472DE9F043DFF884810023C0EB0010D5
:1011600091464601D8F80470D8F80C502DE00020C4
:1011700023E00C24B2FBF4F4E4004FF0800C0CFAF2
:1011800004FC39F813404CFA00FC1CEA040F01D1AE
:101190000C2A08D94FF0010C0CFA00FC14EA0C0FD1
:1011A00004D10C2A02D9B8F8022001E0B8F80020D6
:1011B00007EB4104A253401C491CAA888242D8D89C
:1011C00090B2C0F1F00001445B1CE8889842CED890
:1011D000BDE8F083203AD3B2404A10B4D268146814
:1011E000D2885A4304EB420210BCB2E770B50646FF
:1011F00000243A4D0AE0202221463046FFF7EAFF5C
:10120000E8688088204484B2F02C05D2E8688188A0
:10121000081980B28842EED270BD304A00214FF4E6
:10122000A023526822F81100491C9942FAD3704752
:10123000C1EB011100EB01102849496801EB4000A6
:1012400070470EB5C1B20091C0F30721C0F307404B
:10125000CDE9011021484FF001026946806838B19C
:101260001F48803002F09BF8012002F010F80EBDFC
:101270001B48F7E70EB519484FF000026946806831
:1012800038B11748803002F08AF8012001F0FFFFE2
:101290000EBD1348F7E7F0B50D46074600240F4E84
:1012A0000AE021463846FFF795FFF0686D1C8088FC
:1012B000204484B2F02C08D22A78002A05D0F068A5
:1012C0008088011989B28142EBD2F0BD001402403E
:1012D0000050014000080240000C0240280000209D
:1012E00084680140000005D070B51446F74A1D46D9
:1012F0009268002A0A46014610D0F54E304602F0A8
:1013000092F8012001F0C3FF22462946304602F040
:10131000C7F8BDE87040012001F0B9BFEC4E803E37
:10132000ECE7F02300214FF4A0720846DCE72DE93A
:10133000F043C1EB011100EB0110E44914468BB0FE
:101340004A68994602EB40080888C60A00F01F0563
:10135000C0F3451701F0A2FD4FF44030009001AA00
:10136000022082E8A1000F20CDE904600120CDF821
:101370001880B9F1000F0FD0CDE90840EF21079197
:10138000684601F097FD01F0F6FD022001F0BBFE7A
:101390000028FAD00BB01BE700210994CDE9071013
:1013A000EEE72DE9F0411E4614460D4607460023A0
:1013B0003246FFF7BCFF281981B200233246384677
:1013C000FFF7B5FF0123224629463846FFF7AFFF56
:1013D000B81922462946BDE8F04180B20123A6E7AC
:1013E000F0B5BA4D524200236E6802242D8804EBFA
:1013F0004204CF18A0EB020EC7EB071C0EEB0C1734
:1014000026F81750871807EB0C1C26F81C50A1EB88
:10141000030CCCEB0C1C07EB0C1726F817500EEB4B
:101420000C1726F8175027469C4208DC5B1C07EB7C
:101430004304641CDA4202D1974200DC0027974241
:1014400003DD521C04EB4204641C002AD1DD3CE79E
:101450002DE9F04700EE102A80465742F8EEC00A08
:1014600000EE103A022000EB4704B8EEC00A002557
:1014700001202DED028B0E469A4258DD80EE808AC7
:10148000814600EE105A0123B8EEC00AC0EE080AE9
:10149000BCEEE00A10EE100A00EE105A09EB400014
:1014A000B8EEC00A82B2C0EE080ABCEEE00A10EE46
:1014B000100A301A81B208EB070080B2FFF737FF3D
:1014C00000EE105A0123B8EEC00AC0EE080ABCEEC6
:1014D000E00A10EE100A00EE105A09EB4000B8EED8
:1014E000C00A82B2C0EE080ABCEEE00A10EE100A92
:1014F000301A81B2A8EB070080B2FFF718FF204630
:10150000AC4208DC6D1C00EB4504641CEF4202D1C8
:10151000B84200DC0020B84203DD7F1C04EB470426
:10152000641C002FADDDBDEC028BBDE8F08780EEC2
:10153000208A5F420025814600EE105AF11989B2D7
:10154000B8EEC00A0023C0EE080ABCEEE00A10EEB6
:10155000100A00EE105A09EB4000B8EEC00A82B241
:10156000C0EE080ABCEEE00A10EE100AA8EB00007C
:1015700080B2FFF7DCFE00EE105AF11B89B2B8EE24
:10158000C00A0023C0EE080ABCEEE00A10EE100A02
:1015900000EE105A09EB4000B8EEC00A82B2C0EE6D
:1015A000080ABCEEE00A10EE100AA8EB000080B2B8
:1015B000FFF7BDFE2046AC4208DC6D1C00EB450485
:1015C000641CEF4202D1B84200DC0020B84203DDC7
:1015D0007F1C04EB4704641C002FADDDA3E7F0B5CE
:1015E00000EE102A394F5642F8EEC00A00EE103ACB
:1015F0000224B7F800C0B8EEC01A00257F6804EBDB
:1016000046049A4266DD80EE810A00EE905AF8EEBA
:10161000E00A80EE801AFCEEC10A10EE902A11FA60
:1016200082F2C2EB0212A0EB060E0EEB021227F8BA
:1016300012C000EE905AF8EEE00A80EE801AFCEE3E
:10164000C10A10EE902A11FA82F2C2EB021382193B
:1016500002EB031327F813C000EE905AF8EEE00AED
:1016600080EE801AFCEEC10A10EE903A9BB2CB1AC3
:10167000C3EB031302EB031227F812C000EE905ADB
:10168000F8EEE00A80EE801AFCEEC10A10EE902A15
:1016900092B28A1AC2EB02120EEB021227F812C0A3
:1016A0002246AC4208DC6D1C02EB4504641CEE4291
:1016B00002D1B24200DC0022B24203DD761C04EB10
:1016C0004604641C002EA0DDFFE503E02800002096
:1016D0000469014081EE200A5B42002200EE902A5C
:1016E000F8EEE00A80EE801AFCEEC10A10EE905A85
:1016F000ADB2461BCD18C5EB051506EB051627F850
:1017000016C000EE902AF8EEE00A80EE801AFCEE99
:10171000C10A10EE906A10FA86F606EB051527F856
:1017200015C000EE902AF8EEE00A80EE801AFCEE7A
:10173000C10A10EE905A10FA85F6CD1AC5EB0515C0
:1017400006EB051627F816C000EE902AF8EEE00A20
:1017500080EE801AFCEEC10A10EE906AB6B2861BCB
:1017600006EB051527F815C02546944208DC521CE7
:1017700005EB4204641CD34202D19D4200DC0025EB
:101780009D4203DD5B1C04EB4304641C002BA5DDC0
:101790009BE5F0B5FB4900224FF0010C4F880E8805
:1017A0004B684FF4166E002150F822500CFA01F4E9
:1017B000254201D11F8000E01E80491C2029F3D35F
:1017C000521C7245EFD380E52DE9F84FED490446F0
:1017D00000254868009060882E46A28840EA024BA7
:1017E0006089A289A78B40EA0248608AA28A40EAFF
:1017F0000249E08A228B40EA024A886852464946FA
:1018000058B1E14801F04CFE022001F040FDA7F183
:101810002000082818D200211DE0DB48803801F0A4
:101820003FFE022001F033FDA7F12000082801D27D
:10183000002106E0A7F11000082801D2022100E0F3
:101840000121D148803807E0A7F11000082801D213
:10185000022100E00121CC4801F04DFE022001F000
:1018600016FDAAF1010209FB02F0009AFB0800FB39
:10187000032004EB0801ABEB080C00224FEA4904FB
:101880000FE011F8017B00F8017B6D1CB5FBF3F84C
:10189000C84505D1564503D204FB13000025761C2C
:1018A000521C6245EDD3BDE8F88F2DE9F043B54FEA
:1018B0009946C1EB01113B8800EB011079688BB0B0
:1018C00014464FEAD32803F01F05C3F3451601EB76
:1018D000400701F0E3FA4FF44030009001AA0220E3
:1018E00082E861010F20CDE90507C4F1F0000994F9
:1018F000CDE90709684601F0DDFA01F03CFB022062
:1019000001F001FC0028FAD044E52DE9F74F074625
:10191000894602980321A1EB4006002405464FF6B4
:10192000FF7B35E09DB10BEA4502A9EB050A381BA8
:1019300090461FFA8AF180B20123FFF7F8FC3819AC
:1019400042461FFA8AF180B20123FFF7F0FC9CB1F6
:101950000BEA4402A9EB040A781B90461FFA8AF1AD
:1019600080B20123FFF7E3FC781942461FFA8AF19F
:1019700080B20123FFF7DBFC002E03DA06EB8406BE
:10198000B61D04E0601B06EB80066D1E0A36641C63
:10199000AC42C7D9029A03B049463846BDE8F04F79
:1019A0001EE52DE9FE4F0027141A002C00DC841AD6
:1019B0000FFA84F85C1A002C00DCCC1A0FFA84FCB5
:1019C00006B20DB24FF0FF34824203D301200190E2
:1019D000009001E0019400948B4203D34FF0010B7F
:1019E000DA4601E0A346DA46E0454FF0000008DBA6
:1019F0008246019008EBD870C1464410CDF808C06B
:101A00002DE00090E1460CEBDC70CDF808804FF043
:101A1000000B4410C84622E0F02E0AD2002D08DB4D
:101A2000B5F5A07F05DAA9B2B0B200230122FFF715
:101A30007EFC0298204404B24C4508DBA4EB09006C
:101A400004B20198304406B205EB0B0005B20098D1
:101A50007F1C304406B205EB0A0005B23FB2474591
:101A6000DADDBDE8FE8F70B50D4604460646032953
:101A700015D109E034F8020B34F8021B80B26388F8
:101A8000228889B2FFF78DFF6D1E2D042D0CF1D138
:101A90006388228871883088BDE8704081E770BD16
:101AA0002DE9FF4F83B000270A1A109C002A00DCA2
:101AB000421A0FFA82FCE21A002A00DC1A1B12B248
:101AC00006B21DB24FF0FF38814203D30120834696
:101AD000009002E0C346CDF800809C4203D34FF053
:101AE000010AD14601E0C246D14694454FF00000BC
:101AF00007DB814600900CEBDC704410E04601925D
:101B000025E0834602EBD2704FF0000A4410904665
:101B1000CDF804C01BE0A9B2B0B2119B059AFFF743
:101B200040FF0198204404B2444508DBA4EB0800C0
:101B300004B20098304406B205EB0A0005B206EB89
:101B40000B0006B205EB09007F1C05B23FB247450A
:101B5000E1DD07B0BDE8F08F70B50D4604460229FF
:101B60000ED309E034F8020B34F8021B80B263880C
:101B7000228889B2FFF715FF6D1E2D042D0CF1D1BF
:101B800070BD000028000020046901402DE9F047E5
:101B900091460F4604468046022925D3B4F90060D9
:101BA000B4F9025010E0E088A9B2284483B234F8B6
:101BB000040F304482B2B0B2FFF7F3FE2088304405
:101BC00006B26088284405B27F1E3F043F0CEAD16C
:101BD000B9F1000F08D0ABB2B2B2B8F80210B8F841
:101BE0000000BDE8F047DCE69FE470B50D46044612
:101BF000FFF7B2FF04EB8500618830F8023C30F853
:101C0000042C2088BDE87040CBE60022BEE701220C
:101C1000BCE72DE9F04F85B0002504950688428881
:101C200004468A4637461346012013E004EB800140
:101C3000B1F90210B94200DA8FB2B14200DD8EB2C2
:101C400034F92010994200DA8BB2914200DD8AB259
:101C5000401C00B25045E9DBBAF1020F5AD3B81963
:101C6000B4F9001040F34F060291D018B4F90210F5
:101C7000C0F34F09039126E034F8028BB2B234F876
:101C8000027BB4F90200B4F900501FFA80FBCDE9E1
:101C900000B90490BBB2A9B21FFA88F0FFF700FFA9
:101CA000CDE9009BBBB2AAB2B1B21FFA88F0FFF730
:101CB000F7FEB9B2CDE900B11FFA88F2A9B2B0B20D
:101CC0004B46FFF7EDFEAAF1010080B25FEA000A81
:101CD000D2D1049903988CB283B2CDE9004902981D
:101CE000B2B2A9B280B2FFF7DBFE0398CDE900944F
:101CF00083B20298AAB2B1B280B2FFF7D1FE0398C4
:101D0000A9B280B2CDE9004002984B4682B2B0B28F
:101D1000FFF7C6FE05B01DE72920FEF78BBD01B514
:101D200081B001980090002801D0401EFAE70CBD58
:101D3000F0B585B0012408250026CDE90246CDE99D
:101D400000452021012001F018FF0028F9D1684644
:101D500001F0A0FE0A20D0480490401E0490FCD15F
:101D60000220CDE90005CDE902462021012001F045
:101D700004FF0028F9D1684601F08CFE03200427F7
:101D800003968DE8A1002021012001F0F6FE002835
:101D9000F9D1684601F07EFE2021012001F0EDFE20
:101DA0000028F9D1684601F075FE40F23120CDE9F6
:101DB0000240CDE900752021012001F0DEFE00285F
:101DC000F9D1684601F066FE40F26A5001F080FEEB
:101DD0002021012001F0D1FE0028F9D105B0F0BD8D
:101DE0001CB501217E2000F03AFB02208DF8040092
:101DF0008DF8050000208DF80600A84C8DF807002E
:101E00000C220521204600F0E1FC0C220621204690
:101E100000F0DCFC602100916946204600F062FC85
:101E20009F4C0C220021204600F0D0FC01210091A3
:101E30006946204600F056FC9A4C0C2200212046B0
:101E400000F0C4FC0C220121204600F0BFFC0C2253
:101E50000821204600F0BAFC0C220921204600F09F
:101E6000B5FC0C220A21204600F0B0FC0C220E2109
:101E7000204600F0ABFC0C220F21204600F0A6FC0F
:101E80004CF2037100916946204600F02BFC864C11
:101E90000C220021204600F099FC0C220121204652
:101EA00000F094FC0C220721204600F08FFC0C224D
:101EB0000821204600F08AFC0C220921204600F06F
:101EC00085FC0C220A21204600F080FC0C220B210C
:101ED000204600F07BFC0C221146204600F076FCE8
:101EE0000C220D21204600F071FC0C220E21204610
:101EF00000F06CFC0C220F21204600F067FC4FF62E
:101F0000837100916946204600F0ECFB674C0C227F
:101F10000021204600F05AFC0C220121204600F04E
:101F200055FC0C220221204600F050FC0C2203211B
:101F3000204600F04BFC0C220421204600F046FC19
:101F40000C220521204600F041FC0C220B212046EA
:101F500000F03CFC0C221146204600F037FC0C221D
:101F60000D21204600F032FC0C220E21204600F00C
:101F70002DFC0C220F21204600F028FC4FF63F01DB
:101F800000916946204600F0ADFB494C0C2200212F
:101F9000204600F01BFC0C220121204600F016FC1C
:101FA0000C220421204600F011FC0C2205212046C1
:101FB00000F00CFC0C220821204600F007FC0C224B
:101FC0000F21204600F002FC48F2331100916946CF
:101FD000204600F087FB1CBD00B593B0FFF700FF63
:101FE0000121084600F04FFA0421022007220D913A
:101FF000CDE90B02CDE90E20109011900120009048
:102000000020CDE9010110210391402104914FF4FA
:10201000C071CDE905104FF40061CDE907108800CB
:1020200009900BA80A90684601F0A2FCFFF780FE19
:1020300013B000BD38B505460091144600210120BB
:1020400001F058FD2021012001F097FD0028F9D171
:10205000002C09D0009802CDA0F1405001600098FA
:10206000001D641E0090F3E738BD38B514460546E0
:1020700000912021012001F080FD0028F9D1002CE1
:1020800009D00098A0F14050006801C50098001DDB
:10209000641E0090F3E738BD40420F000004024088
:1020A00000080240000C02400010024000140240F0
:1020B000001802400648804706480047FEE7FEE752
:1020C000FEE7FEE7FEE7FEE7FEE7FEE7FEE7FEE7E8
:1020D00043070008AD010008284908432849086063
:1020E000704730B50F23C27801780125FAB1244A30
:1020F000126801F1E02102F4E062C2F5E062C2F38D
:102100000722C2F10404D3404278A24084781C40E4
:102110001443220181F80024007800F01F018D4053
:102120004009800000F1E020C0F8005130BD01F00E
:102130001F0085404809800000F1E020C0F8805170
:1021400030BD104A114001430D48001F0160704727
:102150000B4A121D0029116801D0014300E08143A0
:10216000116070474FF0E0210428086903D020F087
:1021700004000861704740F00400FAE70000FA0527
:102180000CED00E080FFFF1FF948016841F00101FC
:102190000160F74A0021083211600268F54B1A40CD
:1021A0000260031DF44A1A60F14BF44A84331A604A
:1021B000F14A103A1B1D1A60026822F48022026064
:1021C000EB480C300160181D01607047E84900229F
:1021D000891C0A70087070470246002051090129C5
:1021E0000CD002290CD0E2497431096802F01F02B8
:1021F000012393400B4200D001207047DC49F4E7F3
:10220000DB497031F1E718B500204FF4A04400908D
:102210003120FFF7E1FF0099491C0091A14201D054
:102220000028F5D03120FFF7D7FF002800D001208B
:1022300018BDCF4A116821F0F80141EAC0001060D2
:102240007047CF4908607047C949002270310A7051
:102250000A70012802D0042801D1052008707047B7
:10226000C8490860704741EA82115A0810B5C64B48
:10227000029C03EB02421143014341EA0460BC4962
:10228000091D086010BDBE4908667047800140EA1C
:102290000160B74940EA0270843108607047B8496C
:1022A00088667047800140EA0160B14940EA0270E7
:1022B000883108607047B24908677047B049C86400
:1022C0007047AB4B08331A68084322F0EC621043A6
:1022D00018607047A64B08331A68084322F078420A
:1022E000104318607047A24A0832116821F00301B8
:1022F0000143116070479E480830006800F00C00F0
:1023000070479B4A0832116821F0F00101431160C7
:102310007047974A0832116821F4E0510143116077
:102320007047934A0832116821F4604141EAC000C5
:102330001060704770B58E4B08331968934C11F0DC
:102340000C0104D06610042903D0082903D00460CE
:102350001BE0066019E0864A121D1168C1F3805522
:10236000116801F03F0115B1B6FBF1F101E0B4FBDA
:10237000F1F114681268C4F388146143C2F3014296
:10238000521C5200B1FBF2F1016019680F2202EAFF
:1023900011117F4A545C0168E14041601C680725C7
:1023A00005EA9424145D21FA04F484601B6805EAAC
:1023B0005333D25CD140C16070BDC0F30121032909
:1023C00008D16B4B08331968724A21F4F8110240A6
:1023D0000A431A60664970310A68C0F30B00024371
:1023E0000A60704767494439086070476549403959
:1023F000086070476249C1F85C0170475C4A8C32E2
:102400001168401E21F01F01014311607047584AB6
:102410008C3211686FF0FF0321F4F85103EB0020B8
:10242000084310607047524A8C32116821F4401101
:102430000143116070474E4A8C32116821F440010B
:102440000143116070474A4A8C32116821F44031CF
:102450000143116070475049C1F8E0017047444A98
:1024600030320029116801D0014300E0814311603E
:1024700070473F4A34320029116801D0014300E01F
:102480008143116070473A4A38320029116801D0FF
:10249000014300E0814311607047354A4032002912
:1024A000116801D0014300E0814311607047304A58
:1024B00044320029116801D0014300E081431160DA
:1024C00070472B4A10320029116801D0014300E007
:1024D000814311607047264A14320029116801D0E7
:1024E000014300E0814311607047214A18320029FE
:1024F000116801D0014300E08143116070471C4A1C
:1025000020320029116801D0014300E081431160AD
:102510007047174A24320029116801D0014300E0B6
:10252000814311607047124A50320029116801D06E
:10253000014300E08143116070470D4A5432002985
:10254000116801D0014300E0814311607047084ADF
:1025500058320029116801D0014300E08143116025
:102560007047034A60320029116817D0014316E012
:1025700000380240FFFFF6EA10300024003000204F
:1025800000004742800E47420000FFFF0024F40095
:1025900040000020FFFCFF0F001047428143116004
:1025A0007047194A0029116801D0014300E08143B6
:1025B0001160704714490C310128086803D020F0DD
:1025C00008000860704740F00800FAE70E4A573AE2
:1025D0000029117801D0014300E081431170704758
:1025E00009481030016841F0807101607047014670
:1025F000054A0020583A12680A4200D0012070476C
:10260000014956390870704764380240774910B55F
:10261000884206D101210846FFF753FF002101201F
:102620005BE07349884206D101210220FFF749FF90
:102630000021022051E06F49884206D10121042087
:10264000FFF73FFF0021042047E06B49884206D195
:1026500001210820FFF735FF002108203DE06749F0
:10266000884206D101211020FFF72BFF0021102006
:1026700033E06349884206D101212020FFF721FF82
:102680000021202029E05F49884206D10121402015
:10269000FFF717FF002140201FE05B49884206D169
:1026A00001218020FFF70DFF0021802015E0574910
:1026B000884202D1012184150AE05549884202D19D
:1026C0000121441504E0534988420AD1012104152F
:1026D0002046FFF7F6FE00212046BDE81040FFF738
:1026E000F0BE10BDF0B5002201274FF0030C0B68BF
:1026F00007FA02F52B40AB422CD1066853000CFAC6
:1027000003F4A64306600E79D0F800E09E4046EA46
:102710000E0606600E79012E01D0022E12D18668B7
:10272000A64386604E79D0F808E09E4046EA0E0641
:1027300086604668AE43466045688E799640B6B27C
:1027400035434560C568A543C560CC799C40C368E6
:102750001C43C460521C102AC9D3F0BD4FF6FF7150
:1027600001600021017141718171C171704708B52B
:1027700041F480320092C261C1610099C161C169B6
:10278000C069009008BD0246002012690A4200D0CC
:1027900001207047006980B27047024600205269EC
:1027A0000A4200D001207047406980B2704701831F
:1027B0007047418370470AB1018370474183704776
:1027C0004161704742694A40426170474B07DB0EE6
:1027D0009A40C90810B500EB8100016A0F249C40A3
:1027E000A1430162016A1143016210BD0000024071
:1027F0000004024000080240000C024000100240A9
:102800000014024000180240001C02400020024058
:102810000024024000280240CD4910B5884206D16C
:1028200001211020FFF775FE0021102020E0C9498A
:10283000884202D101214C0429E0C749884202D1D3
:1028400001218C0423E0C549884202D10121CC0436
:102850001DE0C349884202D101210C0517E0C1499E
:10286000884209D101212020FFF753FE00212020BA
:10287000BDE81040FFF74DBEBB49884202D101219F
:102880008C0704E0B94988420AD101214405204659
:10289000FFF735FE2046BDE810400021FFF72FBEB0
:1028A00010BD7FB50446008A0D46C98820F440500B
:1028B00001432182A08941F20C618843A9882A89B9
:1028C00011436A8902431143A181A08A20F4407117
:1028D000A8890843A0826846FFF72CFD9C488442E3
:1028E00002D0A048844201D1039800E00298A18957
:1028F000090400EBC00101EB0010296801D5490073
:1029000000E08900B0FBF1F06422B0FBF2F10901B4
:102910000B096FF018056B4300EB8300A3891D04BE
:102920004FF0320306D503EBC000B0FBF2F000F02D
:10293000070005E003EB0010B0FBF2F000F00F0021
:10294000084320817FBD4FF4165101600021818032
:10295000C18001810C2242818181704710B5028AB9
:102960004C8822F470630A8822438C88C9880C43FF
:1029700022431A43028210BD0021018041808180E0
:10298000C18070470029818902D041F4005101E0E3
:1029900021F4005181817047028B02F47F4202834F
:1029A000028B0A43028370470029818902D041F4D7
:1029B000004101E0C1F30E01818170470029818A45
:1029C00002D041F4006101E021F40061818270478E
:1029D000C1F30801818070478088C0F30800704708
:1029E000028A22F00F020282028A0A4302827047A0
:1029F0000029818902D041F0020101E021F00201A9
:102A000081817047828922F40062828182890A432F
:102A100082817047028A22F020020282028A0A43DF
:102A2000028270470029018A02D041F4804101E00E
:102A300021F4804101827047818941F00101818147
:102A400070470029818A02D041F0080101E021F09D
:102A5000080181827047028BD2B20283028B42EA64
:102A60000121018370470029818A02D041F02001B1
:102A700001E021F02001818270470029818A02D083
:102A800041F0100101E021F0100181827047828A3B
:102A900022F004028282828A0A43828270470029DD
:102AA000818A02D041F0020101E021F0020181821D
:102AB0007047002A828A01D00A4300E08A4382825A
:102AC000704710B5C1F3421301F01F040121A1406A
:102AD000012B07D0022B07D01430002A026805D042
:102AE0000A4304E00C30F8E71030F6E78A4302604E
:102AF00010BD0246002012880A4200D00120704713
:102B0000C9430180704770B501F01F0501260024FC
:102B1000C1F3421306FA05F2012B0FD0022B0FD09E
:102B2000838A4FEA11210088134206FA01F600EA6F
:102B3000060001D000B10124204670BD8389F0E772
:102B4000038AEEE70A0A01219140C94301807047D8
:102B5000001001400044004000480040004C00408C
:102B6000005000400014014000780040007C00400C
:102B7000C14910B5884202D10121841424E0BF4923
:102B8000884202D10121041404E0BD4988420AD1DF
:102B90000121C4132046FFF7B2FC2046BDE81040D7
:102BA0000021FFF7ACBCB749884202D1012144148F
:102BB0000AE0B549884202D101210C0504E0B3497D
:102BC00088420AD101214C052046FFF7A2FC20468D
:102BD000BDE810400021FFF79CBC10BD30B5028855
:102BE0004C8802F441530A88CD8822438C882C43B8
:102BF00022430C8922434C8922438C892243CC896D
:102C000022431A430280828B22F400628283098A63
:102C1000018230BDF0B502220023858B01244FF2E2
:102C20004006354085830284868B8D68022D3DD019
:102C30008A8802B10224964A13681B0203D51368DE
:102C400023F400031360924A7C3213681268C3F3C2
:102C500088138F4FC2F302723F1F3D683F6805F033
:102C60003F057F0201D58B4F00E08B4FB7FBF5F599
:102C70005D43B5FBF2F2CB88B3F5007F2BD0630147
:102C8000B2FBF3F202EB82028B685200B2FBF3F26A
:102C9000521D92B20A23B2FBF3F202F00103D21AE0
:102CA0004FF6FF74C2F34F0204EA0323941EFE2C76
:102CB00001D302220023CC881A43144304840A88D7
:102CC0004B881A438B8889890B431A43324342F459
:102CD00000618183F0BD120AD4E7002101804180A8
:102CE0008180C180018141818181C181072101826F
:102CF00070470021018041808180C1800222826072
:102D0000818170470029018802D041F0400101E033
:102D100021F04001018070470029818B02D041F4ED
:102D2000806101E021F4806181837047028822F490
:102D30000062028002880A4302807047B1F5804F2A
:102D4000018803D021F480410180704741F4804123
:102D5000FAE7A1F57E420188FF3A02D041F4807182
:102D600001E021F48071018070470029818802D040
:102D700041F0040101E021F0040181807047002945
:102D8000818802D041F0100101E021F01001818022
:102D9000704730B5828B00234FF24004224082837B
:102DA00002220284848B0A884FF48075B2F5007F7A
:102DB00000D002B92B464A888D8889892A43194355
:102DC0000A43224342F40061818330BD8089704709
:102DD000818170470029018802D041F4005101E04F
:102DE00021F4005101807047018841F48051018035
:102DF0007047012901D0008B7047808A7047008A94
:102E00007047002A828801D00A4300E08A4382800A
:102E10007047090901238B40002A828899B201D0AA
:102E20000A4300E08A4382807047024600201289EC
:102E30000A4200D001207047C9430181704730B574
:102E400001F00F030125024605FA03F40020A3B2A6
:102E5000090905FA01F49188A4B2128921401A42A5
:102E600002D0002900D0012030BD01F00F02012165
:102E70009140C94301817047003001400038004053
:102E8000003C00400034014000500140005401402B
:102E90000838024000127A000024F40010B5012125
:102EA000CC052046FFF70DFB2046BDE81040002171
:102EB000FFF707BB30B5A34B00241968A24A1140A5
:102EC00019601968026811431960596B21F00701F4
:102ED0005963596B426811435963416841B30129F1
:102EE0002DD0022930D00329C16832D00A010169EE
:102EF0004469090224038568214315430D43996BF6
:102F00000D439D638169D963196C6FF30D011964D9
:102F1000196CC26911431964818C5A6C02F04042E9
:102F20005A645A6C006A024342EA01425A6430BD54
:102F3000C168047D0A02018A09042406DBE7C1682E
:102F40000A02018A0904D6E7C1684A010169C90277
:102F5000D1E74A01016944698902E403CBE7002112
:102F600001604160C1608160016141618161C16155
:102F70000162416270477348016841F001010160DC
:102F800070477048016841F00401016070476D4965
:102F90000028086802D040F0020001E020F00200A2
:102FA0000860704770B567490268CA600A696FF3C4
:102FB0000D020A610A6943681A430A61CA69634BD0
:102FC0001A40CA61848AD0E902622504036946EA8C
:102FD0000216047E45EA03231E43CA6946EA0466D4
:102FE0001643CE610A6A02F07F420A62026A838C4B
:102FF0000C6A1202C56942EA03422C4314430C6274
:10300000806AC86270BD0021016041608160C1605A
:10301000016141618161C161016241628162704708
:1030200070B5484902684A618A696FF30D028A6186
:103030008A6943681A438A614A6A444B1A404A6261
:10304000848AD0E902622504036946EA0216047EF6
:1030500045EA03231E434A6A46EA046616434E6263
:103060008A6A02F07F428A62026A838C8C6A120248
:10307000C56942EA03422C4314438C62806A0863A8
:1030800070BD0021016041608160C16001614161EA
:103090008161C161016241628162704729490028F2
:1030A000C86902D040F0200001E020F02000C86193
:1030B000704724490028486A02D040F0200001E00F
:1030C00020F02000486270471E4A59B1D16C4FF67B
:1030D00001739943D164D16C000240F001000143B7
:1030E000D1647047D06C20F00100D064704715495E
:1030F00088647047134A0029116801D0014300E039
:103100008143116070470F4A0146002052680A420D
:1031100000D0012070470B4988607047094B10B5FB
:103120005C68002114EA102F00D001211A680242C5
:1031300002D009B1012010BD002010BD0149000AD4
:103140008860704700B00240FCE0FCFFC000FC005B
:1031500010B501218C062046FFF7DBF92046BDE8BB
:1031600010400021FFF7D5B930B5F74A1368F74989
:103170000B401360038A146845692C4344EA0344F6
:103180001460121D13680B401360038B1468C5692B
:103190002C4344EA03441460121D13680B4013606F
:1031A000038C1468456A2C4344EA03441460121DDE
:1031B00013680B401360018D1368C46A234343EA0C
:1031C00001431360111D0A68E14B1A400A60D0E9FF
:1031D00000231A43D0E9023423431A430B681A43ED
:1031E0000A60416B0A02018E0B04D74924310C6836
:1031F00004F07F440C600C68806B134304431C4351
:103200000C6030BD0021016041608160C1600161DE
:1032100041618161C161016241628162C162016398
:10322000416381637047C84910310028086802D0A3
:1032300040F0010001E020F0010008607047C24941
:1032400010310028086802D040F4803001E020F4FA
:10325000803008607047BC4910310A68BC4B1A4086
:103260000A600A680B68C2F302120968C3F30223FA
:10327000C1F302310260C0E90131704702210160EF
:10328000416081607047B049383108607047AE498D
:103290001C310860704770B58A88436803F4704336
:1032A00043600B6843EA024343608A89836803F4FE
:1032B000704383608B6843EA02438360026922F0B3
:1032C000070202610A690261CA6991F82430140296
:1032D0000A8C85691204002686618D6942EA0362C0
:1032E000254315438561426922F0FF0242614A6924
:1032F0004261C26940F207739A43C261D1E90A236D
:103300001A43C261826A86620A6B82620A8FC36A4A
:1033100003F0E023C3624B6B43EA0243C362026BD8
:103320006FF30A020263C96B016370BD0021016083
:1033300041608160FF22C160C0E904128161C16106
:103340004FF4C0620162C0E909120722C0E90B21F3
:1033500041638163C16370470029016802D041F075
:10336000010101E021F001010160704776493C3123
:103370000A6800220A600A680968120C89B2C0E96A
:103380000021704700210160416070476E49403163
:103390000968014201D0012070470020704710B534
:1033A00092B1026842F0020202604A68C4681302E5
:1033B0000A8904F07F44C460C468096843EA024390
:1033C0000C431C43C46003E0016821F0020101606A
:1033D0005D4901201C31086010BD00210160416081
:1033E000816070470029016802D041F0100101E0BE
:1033F00021F010010160544901201C310860704720
:1034000010B58A6814028A8913040A7849681C4333
:1034100041EA02612143016410BD00210160416065
:103420008160C160704710B5436803F47043436026
:10343000836803F470438360434B1B1D1C6801EBDE
:10344000144312FA84F20169521C5B1CF1B1012988
:103450001ED004291ED002291CD003291AD0072906
:1034600018D00121C46AC4F30C04E41EB4FBF1F1CA
:10347000046B1944491EC4F30A0443EA014114448D
:103480004160641E42EA0441816010BD0421E9E705
:103490000321E7E70221E5E7416170478162704758
:1034A000F0B503690BB3012B21D0042B21D0022BE3
:1034B0001FD0032B1DD0072B1BD001234468C4F35E
:1034C0000C0584684E19C4F30C041719761E45EADE
:1034D000064545607F1E44EA074484605943CB1C7F
:1034E00043EA0141C1620263F0BD0423E6E703231E
:1034F000E4E70223E2E702690AB3012A21D0042AA1
:1035000028D0022A26D0032A24D0072A22D001223A
:10351000C36A1B0CB3FBF2F3F1B101291ED00429DD
:103520001ED002291CD003291AD0072918D0012245
:103530005343DA1C42EA0342C2620161704704222B
:10354000E6E70322E4E700000868014000F800F025
:103550008F88FE0F0222DBE70422E9E70322E7E778
:103560000222E5E7144A0029116801D0014300E076
:1035700081431160704701460F4A0020121D1268F6
:103580000A4200D0012070470B490831086070479B
:10359000094A0021121D1268024200D00121064A88
:1035A0001268024202D009B1012070470020704722
:1035B0000149083108607047346801408100A1F179
:1035C000C04140B143F2D20008606FF070404860E3
:1035D000C1F8040170474FF0204243F2DB00106055
:1035E000F3E710B5D0E901121143D0E903231A43E0
:1035F00011434269114382691143C2691143026A4E
:103600001143426A1143826A1143C26A1143026B39
:103610001143426B114302689200A2F1C042116053
:103620008168082907D101688900A1F1C0410A68B1
:1036300042F040020A60416BB1F5801F15D101686C
:1036400099B14FF020414A680B6822F4700243F4AC
:1036500080130B600B6843F480730B60836BFA4C30
:103660001B8A04EB035313434B60816BD1E90023A6
:1036700042EA03128B688C891B0243EA04431A4313
:103680000B8A42EA03520B7D896942EA03620A43CC
:1036900001688900A1F1C0414A60816AB1F5804F9B
:1036A00008D000686FF070418000A0F1C040C0F801
:1036B000041110BDC16BD1E9002342EA03128B68EB
:1036C0000C8A1B0243EA04531A430B7D896942EAC0
:1036D000036200680A438000A0F1C040C0F80421E2
:1036E00010BD00210222C0E900121022C0E902121E
:1036F0000161C162416112028161C0E90712520099
:10370000C0E9092101634163D0498163C163704706
:103710008000A0F1C0400029016802D041F0010101
:1037200001E0CB4A11400160704710B518234024D6
:103730004FF020414FF0FC32102805D041F8803F77
:103740004C608A60CA6010BD0B664C668A66CA66A9
:1037500010BD30B5D0E901121143D0E903231A435B
:103760001143426941EA4221826941EA423141F012
:103770000804C169D1E9002342EA03220B89097BCD
:103780001B0443EA01610A43016AD1E9003543EAB7
:1037900005230D89097B2D0445EA01610B4301686E
:1037A0004FF02040102904D040F8804F8260C36061
:1037B00030BD04668266C36630BD10220021C0E9B8
:1037C0000021C0E90221016141618161C269FC21DE
:1037D0001160C2695160C2699160C269D160026AB8
:1037E0001160026A5160026A9160006AC1607047AC
:1037F0004FF0204251B1102804D052F8800F40F011
:1038000004000AE0106E40F004000AE09049C91E6E
:10381000102804D052F8800F084010607047106ED6
:103820000840106670474FF0204251B1102804D074
:1038300052F8800F40F040000AE0106E40F0400067
:103840000AE083493F39102804D052F8800F08401D
:1038500010607047106E0840106670474FF02041AE
:10386000102802D0D1F894007047486F70474FF08D
:103870002040182140F8A01F002141604FF0FC318A
:103880008160C1600161704710B5D0E9001241EA62
:1038900042218268102343EA423211434FF0204212
:1038A00042F8A01FC168D1E9003443EA04230C891F
:1038B000097B240444EA01610B4393600169D1E967
:1038C000003443EA04230C89097B240444EA01619F
:1038D0000B43D3604069D0E9001341EA0321038917
:1038E000007B1B0443EA00600143116110BD00210D
:1038F000016041608160C268FC211160C268516052
:10390000C2689160C268D160026911600269516049
:10391000026991600269D160426911604269516037
:10392000426991604069C16070474FF020410028B2
:1039300051F8A00F02D040F0040002E0444AD21E29
:103940001040086070478000A0F1C0404FF434710F
:10395000C0F840116FF07041C0F848114FF020419D
:103960000020C1F85001C1F85401C1F85801704756
:10397000F0B5D0E901121143D0E903231A431143F2
:103980004269046A11438269436A1143C269066845
:103990001143214319434FF0204586B322431A4374
:1039A000C5F8402102689200A2F1C042C2F840115D
:1039B0006FF00F02130114030168160419B3816A32
:1039C000D1E9007C02EB0C127F1E17438A6803EBDF
:1039D000022217430A8A04EB02421743CA68898A03
:1039E000120306EB0151A2F580520A43C5F84821A3
:1039F00000688000A0F1C040C0F84871F0BDFFE74A
:103A0000C5F84011D4E7806AD0E9001702EB07122D
:103A1000491E1143826803EB022211430D4BC26819
:103A200003EB02321143028A04EB02421143828A01
:103A3000007E06EB025211431A0302EB00600143C1
:103A4000C5F84811DAE700000000F0FFCC5A000882
:103A5000FEFF0F0000F0FFFF002202604260102115
:103A600040238260C0E90313802343614B01C0E916
:103A7000063202624262826A1160826A5160826A20
:103A80009160826AD160826A1161826A5161806A42
:103A900081617047D0E90012114382686FF01F0303
:103AA000C06803EB421242EA402001434FF020403D
:103AB000C0F8501170474FF020410028D1F858014C
:103AC00003D000F018008008704700F0060070472F
:103AD0004FF02041D1F8542142EA4000C1F854018E
:103AE00070474FF02041D1F8502142EA4010C1F810
:103AF000500170478000A0F1C0400029D0F840116B
:103B000002D041F4007102E047F6FF521140C0F8C4
:103B10004011704730B54FF480752C014FF02043B1
:103B2000A2B1102804D0A84205D153F8840F06E0B2
:103B3000586E084313E0A04204D153F8A40F084381
:103B4000186030BDD3F85401084313E0102804D0A6
:103B5000A84206D153F8840F07E0586E8843586690
:103B600030BDA04203D153F8A40F8843E8E7D3F84F
:103B700054018843C3F8540130BD00224FF0204364
:103B800010280AD0B0F5807F09D0B0F5805F09D049
:103B9000D3F85801814309D107E0586EFAE7D3F80A
:103BA0008400F7E7D3F8A400F4E701221046704739
:103BB0004FF0204210280BD0B0F5807F0CD0B0F52C
:103BC000805F0CD0D2F854018843C2F8540170478A
:103BD000506E88435066704752F8840F01E052F8E7
:103BE000A40F88431060704730B500231C464FF087
:103BF0002045102815D0B0F5807F14D0B0F5805F37
:103C000014D0D5F85421D5F8584102EA010580B105
:103C100001280ED002EAD10008B105B101231846EF
:103C200030BD6A6EF1E7D5F88420EEE7D5F8A42020
:103C3000EBE704F00100EFE74FF0204210280CD032
:103C4000B0F5807F0ED0B0F5805F0ED0D2F8540171
:103C500040F00100C2F854017047506E20EAD100D4
:103C60005066704752F8840F01E052F8A40F20EA22
:103C7000D1001060704700002DE9F043016821F089
:103C8000010101600021016041608160C16001614A
:103C900021214161B849B84A3D251039904202D1ED
:103CA0008D60BDE8F083B44A4FF4746618329042D8
:103CB00001D18E60F5E7B04A4FF47417303290426C
:103CC00001D18F60EDE7AC4A4FF0746C48329042FE
:103CD00002D1C1F808C0E4E7A74BA84A6033984274
:103CE00001D1CA60DDE7A44CA54B7834A04201D1D4
:103CF000CB60D6E7DFF88082A24C08F190084045FF
:103D000001D1CC60CDE7DFF870824FF03D5908F16A
:103D1000A808404502D1C1F80C90C2E79A49DFF8E3
:103D200068820839404501D10D60BAE7964D1835D3
:103D3000A84201D10E60B4E7934D3035A84201D1BD
:103D40000F60AEE7904D4835A84202D1C1F800C0DF
:103D5000A7E78D4D8C496035091FA84201D10A6043
:103D60009FE7894A7832904201D10B6099E7864AF1
:103D70009032904201D10C6093E7834AA83290427E
:103D80008FD1C1F800908CE730B503687F4ACC68CA
:103D900013400A682243D1E905452C432243CC69EC
:103DA00022430C6A22434C6A22438C6A22434C6BA6
:103DB00022438C6B22431A430260426922F00703BC
:103DC000D1E90B2422431A4342610A6942604A68DE
:103DD00082608968C16030BD0021016041608160FE
:103DE000C160016141618161C161016241628162C1
:103DF000C16201634163816370470029016802D099
:103E000041F0010101E021F001010160704700294A
:103E1000016802D041F4004101E021F40041016059
:103E200070470029016802D041F0200101E021F033
:103E300020010160704741607047406880B2704760
:103E4000002A026802D042F4002201E022F400229B
:103E50000260016170470029016802D041F48021AD
:103E600001E021F48021016070470AB101617047CF
:103E7000C1607047014600200968090300D5012090
:103E80007047014600200968C90700D0012070472B
:103E9000406900F03800704702463B4B00209A42D0
:103EA00002D2354A103A01E0374A103A8B0001D568
:103EB000526800E01268364B1A400A4200D00120D6
:103EC0007047314A904202D22B48103801E02E4808
:103ED00010382F4A8B0001EA020101D5C1607047FA
:103EE000816070470B0607D5436912B143F0800328
:103EF00001E023F080034361802908D0002A026892
:103F000001F01E0101D00A4300E08A4302607047BD
:103F100030B51D4A0024904202D2174A103A01E0FF
:103F2000194A103A1B4B194205D01E2303EAD1252A
:103F300003682B4002E0406900F08003880001D54F
:103F4000506800E01068124A1040084201D003B1E6
:103F50000124204630BD0C4A904202D20648103857
:103F600001E0094810380A4A8B0001EA020101D534
:103F7000C160704781607047106002403D000020C2
:103F8000400F002000003D20106402403F801CF0E4
:103F90007D0F7D0F3C0F3C0F10B501210C02204618
:103FA000FEF7B7FA2046BDE810400021FEF7B1BA8F
:103FB00030B54268C84B0C791A400B6842EA0422BB
:103FC000134343608268C54B4D791A40D1E90343DE
:103FD00023438C6844EA4504234313438360C26A45
:103FE000097D22F47002491EC9B242EA0151C16240
:103FF00030BD00210160017141718160C1600161CA
:10400000012101757047B64B10B5D3F80423B549AB
:104010000A40D0E900142143D0E90240044321437F
:104020001143C3F8041310BD002101604160816099
:10403000C16070470029816802D041F0010101E0B0
:1040400021F00101816070474268A74B1A400A4382
:1040500042607047416282627047426822F01F02EC
:104060000A43426070479E490028D1F8040302D0F9
:1040700040F4000001E020F40000C1F804037047A0
:1040800097490028D1F8040302D040F4800001E0F1
:1040900020F48000C1F80403704770B50726092991
:1040A0000AD9C568A1F10A0404EB4404A640B5434B
:1040B000A3401D43C56007E0056901EB4104A6402C
:1040C000B543A3401D4305611F23072A09D2446B52
:1040D000521E02EB820293409C4391400C43446386
:1040E00070BD0D2A09D2046BD21F02EB82029340ED
:1040F0009C4391400C43046370BDC46A0D3A02EBCB
:10410000820293409C4391400C43C46270BD81681D
:1041100041F0804181607047014600208968490074
:1041200000D5012070470029816802D041F48061E8
:1041300001E021F48061816070470029816802D02C
:1041400041F0020101E021F0020181607047426804
:10415000491E22F4604242EA413141607047002921
:10416000416802D041F4006101E021F40061416046
:104170007047C06C80B270475948D0F80803704748
:104180000029816802D041F4807101E021F480713E
:10419000816070470029816802D041F4007101E01C
:1041A00021F40071816070474D490028D1F8040363
:1041B00002D040F4005001E020F40050C1F80403A4
:1041C000704770B5072609290AD9C568A1F10A0404
:1041D00004EB4404A640B543A3401D43C56007E07B
:1041E000056901EB4104A640B543A3401D430561A9
:1041F000836BC3F30154121B921C02EB82021F2437
:104200009440A34391400B43836370BD826B491E6E
:1042100022F4401242EA01518163704708B5084414
:104220000090026008BD826822F470220A43826016
:104230007047826822F440120A43826070478168A6
:1042400041F480018160704701460020896849027D
:1042500000D5012070470029416802D041F48061F7
:1042600001E021F48061416070470029416802D07B
:1042700041F4805101E021F480514160704708B55C
:10428000084428300090006880B208BD01238B40AC
:1042900041680AB1194300E0994341607047024602
:1042A000002012680A4200D001207047C943016013
:1042B000704730B50246002053680C0A01258D4036
:1042C00011682B40214202D0002B00D0012030BDCC
:1042D0006FEA112101607047FFFEFFFCFDF7FFC090
:1042E00000200140E030FCFFFFFD3FFF2DE9FE4FC5
:1042F00081EA030404F0004421F0004100944FF0EF
:10430000000B23F0004350EA01045ED052EA03049C
:104310005BD0C3F30A54C1F30A552C44A4F2F3341E
:104320000194A0FB0254C1F3130141F48011C3F3C3
:10433000130343F4801301FB024400FB034E840A81
:10434000970A44EA815447EA8357A4FB0768029519
:104350008D0A05FB07854FEA932C04FB0C542705B7
:10436000029D4FEA065847EA1637B5EB08056EEB93
:10437000070C870E920E47EA811742EA8312A7FBC9
:104380000201B6EB0B0164EB00042B0D43EA0C3386
:104390005E1844EB1C50DA465146E7FB0201C5F3B8
:1043A00013044FEA0B3343EA14534FEA0432019CDF
:1043B00043EA0603A4F10C040294009CCDE900B486
:1043C00000F061F803B0BDE8F08F00200146F9E786
:1043D0000EB540F2334102910021CDE900110A46A9
:1043E0000B4600F050F803B000BDC1F30A5210B5FF
:1043F000C1F3130140F2FF3341F480119A4201DA14
:10440000002010BD40F233439A42A2F2334203DC53
:10441000524200F019F810BD904010BD30B50B4667
:10442000014600202022012409E021FA02F59D42E4
:1044300005D303FA02F5491B04FA02F52844151EB8
:10444000A2F10102F1DC30BD202A04DB203A21FA7E
:1044500002F00021704721FA02F3D040C2F120029D
:10446000914008431946704710B5141E73F10004BB
:1044700008DA401C41F1000192185B411A4301D156
:1044800020F0010010BD2DE9F04D92469B4611B180
:10449000B1FA81F202E0B0FA80F22032904600F0E8
:1044A00053F804460F4640EA0A0041EA0B0153461E
:1044B0005A46084313D0114653EA010019D0C8F1F7
:1044C00040025046FFF7C0FF05460E46504659468B
:1044D000424600F039F8084305D0012004E02046A8
:1044E0003946BDE8F08D0020054346EAE0762C43CE
:1044F00037430A986305E40AA0EB08000022FD0A8E
:1045000044EA47540A3002D500200146E9E7010594
:1045100010196941DDE9084500196941BDE8F04D10
:10452000A2E70000064C074D06E0E06840F00103FA
:1045300094E8070098471034AC42F6D3FBF73AFEF4
:10454000E85A0008085B0008202A04DB203A00FA39
:1045500002F1002070479140C2F1200320FA03F3DA
:1045600019439040704700000FB4084B10B504A9E0
:1045700002AA039800F01CF8044602A9002000F0EB
:10458000B8F9204610BC5DF814FB0000F3480008A1
:1045900002E008C8121F08C1002AFAD1704770470C
:1045A000002001E001C1121F002AFBD1704700006A
:1045B0002DE9FF4F8BB088460546002606E02528EA
:1045C0000BD0DDE90D1290476D1C761C2878002871
:1045D000F5D10FB03046BDE8F08F0024A146A246C9
:1045E0000122AE4900E0044315F8013F203B02FAE6
:1045F00003F00842F7D128782A2810D06FF02F0254
:104600002878A0F13001092915D809EB890102EBBE
:10461000410144F0020400EB01096D1CF0E758F879
:10462000041B5FEA010903D544F40054C9F10009F1
:1046300044F002046D1C28782E2817D115F8010FBC
:1046400044F004042A280ED06FF02F022878A0F13D
:10465000300109290AD80AEB8A0102EB410100EB7B
:10466000010A6D1CF2E758F804AB6D1C28786C2821
:104670000FD006DC4C2817D068280DD06A2814D13A
:1046800004E0742810D07A280FD10DE044F400140F
:104690000AE044F4801401E044F440146978814253
:1046A00002D104F580146D1C6D1C2878692865D032
:1046B00006DC00288DD0632827D0642806D15DE071
:1046C0006E2808D073282AD0752877D0DDE90D121E
:1046D0009047761CE0E0C4F30250022809D003287A
:1046E0000DD0D8F8001004280DD00E6008F1040891
:1046F000D2E0D8F80010F217C1E90062F6E7D8F866
:1047000000100E80F2E70E70F0E718F8041B8DF829
:10471000001000208DF80100EB46012003E058F85E
:1047200004BB4FF0FF3061074FF0000701D40AE0EF
:104730007F1C57450DDA8742FADB1BF8071000296A
:10474000F6D106E07F1C8742FCDB1BF8071000292E
:10475000F8D1DDE90D23A9EB07008146214600F0E1
:10476000B1F83044C61904E0DDE90D121BF8010B65
:1047700090477F1EF8D22146484688E058F8040B3F
:10478000C4F302514FF00A0B032900D100B20429EF
:1047900000D140B2002802DA40422D2102E021057A
:1047A00005D52B218DF82410012104E006E0E10756
:1047B00010D02021F6E708AF089113E058F8040B59
:1047C000C4F302514FF00A0B032900D180B204292F
:1047D00000D1C0B20021EEE75946FFF71FFE30318D
:1047E00007F8011D0028F7D1ADEB070000F1200B01
:1047F000600702D524F4803401E04FF0010ADA4565
:1048000002DDAAEB0B0000E00020824600EB0B016A
:1048100008980144A9EB01000A90E00306D4DDE901
:104820000D2321460A9800F04DF806444FF0000988
:1048300008E009A911F80900DDE90D12904709F116
:104840000109761C08998945F3DBE0030CD5DDE905
:104850000D2321460A9800F035F8064404E0DDE90E
:104860000D1230209047761CBAF10001AAF1010A1E
:10487000F5DC05E0DDE90D1217F8010B9047761C19
:10488000BBF10001ABF1010BF4DC0A982146DDE934
:104890000D2300F005F806446D1C97E60928010079
:1048A0002DE9F041044600251E461746880404D42D
:1048B00005E039462020B0476D1C641EF9D5284616
:1048C000BDE8F0812DE9F041044600251E469046E2
:1048D000C80301D5302700E02027880404D505E06F
:1048E00041463846B0476D1C641EF9D52846BDE8E0
:1048F000F0810A68531C0B601070704700000000C4
:1049000000000000000000000000000000000000A7
:104910000000000000000000000000000000000097
:104920000000000000000000000000000000800106
:10493000800180018001800180018001800180016F
:104940008001800180018001000000008001800161
:104950000000000000000000000000000000000057
:10496000CC00CC00CC00CC00CC00CC00000000007F
:104970000000000000000000000000000000000037
:104980000000000000000000000000000000000027
:104990000000000000000000600C600C600C30069D
:1049A0003006FE1FFE1F300638071803FE1FFE1FCD
:1049B000180318038C018C018C010000000080009A
:1049C000E003F80F9C0E8C1C8C188C009800F801EA
:1049D000E007800E801C8C188C189C18B80CF00F07
:1049E000E0038000800000000000000000000000E4
:1049F00000000E181B0C110C1106110611031103F7
:104A00009B018E01C038C06C604460443044304427
:104A10001844186C0C380000000000000000E00191
:104A2000F0033807180618063003F001F000F8000C
:104A30009C310E33061E061C061C063FFC73F0213B
:104A40000000000000000000000000000000000066
:104A50000C000C000C000C000C000C00000000000E
:104A60000000000000000000000000000000000046
:104A70000000000000000000000000000000000234
:104A800000038001C000C000600060003000300002
:104A90003000300030003000300030006000600036
:104AA000C000C000800100030002000000002000E0
:104AB0006000C000800180010003000300060006C2
:104AC00000060006000600060006000600030003BC
:104AD00080018001C0006000200000000000000094
:104AE0000000000000000000C000C000D806F80769
:104AF000E001300338070000000000000000000063
:104B000000000000000000000000000000000000A5
:104B10000000000000000000800180018001800191
:104B20008001FC3FFC3F8001800180018001800109
:104B30000000000000000000000000000000000075
:104B40000000000000000000000000000000000065
:104B500000000000000000000000000000008001D4
:104B60008001000100018000000000000000000042
:104B70000000000000000000000000000000000035
:104B800000000000E007E007000000000000000057
:104B90000000000000000000000000000000000015
:104BA0000000000000000000000000000000000005
:104BB0000000000000000000000000000000C00035
:104BC000C000000000000000000000000000000C19
:104BD000000C00060006000600030003000380032B
:104BE000800180018001C000C000C0006000600042
:104BF0000000000000000000000000000000E003D2
:104C0000F007380E180C0C180C180C180C180C188F
:104C10000C180C180C180C18180C380EF007E003C0
:104C20000000000000000000000000000000000183
:104C30008001C001F001980188018001800180019C
:104C4000800180018001800180018001800180015C
:104C50000000000000000000000000000000E00371
:104C6000F80F180C0C180C1800180018000C00068F
:104C700000038001C000600030001800FC1FFC1F12
:104C80000000000000000000000000000000E00143
:104C9000F807180E0C0C0C0C000C0006C003C00723
:104CA000000C001800180C180C18180CF807E0037A
:104CB0000000000000000000000000000000000CE8
:104CC000000E000F000F800DC00C600C600C300C4B
:104CD000180C0C0CFC3FFC3F000C000C000C000CF2
:104CE0000000000000000000000000000000F80FBD
:104CF000F80F180018000C00EC03FC071C0E001C39
:104D00000018001800180C181C0C180EF807E00307
:104D10000000000000000000000000000000C007CC
:104D2000F00F381C181818000C00CC03EC0F3C0EC8
:104D30001C1C0C180C180C18181C380EF007E0037B
:104D40000000000000000000000000000000FC1F48
:104D5000FC1F000C00060006000380038001C00158
:104D6000C000E000600060007000300030003000E3
:104D70000000000000000000000000000000E00350
:104D8000F007380E180C180C180C3806F007F0074E
:104D9000180C0C180C180C180C18380CF80FE00331
:104DA0000000000000000000000000000000E00320
:104DB000F007380E1C0C0C180C180C181C1C381E94
:104DC000F81BE0190018000C000C1C0EF807F0018D
:104DD00000000000000000000000000000000000D3
:104DE00000000000000000008001800100000000C1
:104DF00000000000000000000000000080018001B1
:104E000000000000000000000000000000000000A2
:104E10000000000000000000800180010000000090
:104E20000000000000000000000000008001800180
:104E300000010001800000000000000000000000F0
:104E40000000000000000000000000000010001C36
:104E5000800FE003F8001800F800E003800F001C4A
:104E60000010000000000000000000000000000032
:104E7000000000000000000000000000F81F00001B
:104E800000000000F81F000000000000000000000B
:104E90000000000000000000000000000000000012
:104EA00000000000000000000000000008003800C2
:104EB000F001C007001F0018001FC007F0013800F4
:104EC0000800000000000000000000000000E003F7
:104ED000F80F180C0C180C180018000C0006000332
:104EE0008001C000C000C00000000000C000C00081
:104EF00000000000000000000000000000000000B2
:104F0000E00718180420C229224A11440944094420
:104F1000094409221113E20C024004201818E0078A
:104F200000000000000000000000000000008003FE
:104F30008003C006C006C006600C600C3018301834
:104F40003018F83FF83F1C700C600C6006C006C0BB
:104F50000000000000000000000000000000FC0352
:104F6000FC0F0C0C0C180C180C180C0CFC07FC0F8C
:104F70000C180C300C300C300C300C18FC1FFC07DB
:104F80000000000000000000000000000000C0075A
:104F9000F01F38381C300C70066006000600060052
:104FA00006000600060006600C701C30F01FE007CB
:104FB0000000000000000000000000000000FE03F0
:104FC000FE0F060E061806180630063006300630AC
:104FD00006300630063006180618060EFE0FFE03D1
:104FE0000000000000000000000000000000FC3F86
:104FF000FC3F0C000C000C000C000C00FC1FFC1F04
:105000000C000C000C000C000C000C00FC3FFC3FE2
:105010000000000000000000000000000000F83F59
:10502000F83F18001800180018001800F81FF81FA3
:1050300018001800180018001800180018001800B0
:105040000000000000000000000000000000E00F71
:10505000F83F3C780E6006E007C00300030003FE43
:1050600003FE03C007C006C00EC03CF0F83FE00FCF
:1050700000000000000000000000000000000C30F4
:105080000C300C300C300C300C300C30FC3FFC3F42
:105090000C300C300C300C300C300C300C300C3030
:1050A000000000000000000000000000000080017F
:1050B00080018001800180018001800180018001E8
:1050C00080018001800180018001800180018001D8
:1050D00000000000000000000000000000000006CA
:1050E0000006000600060006000600060006000690
:1050F000000600060006180618063807F003E0014F
:105100000000000000000000000000000000063069
:105110000618060C060606038601C6006600760021
:10512000DE008E0106030606060C06180630066031
:105130000000000000000000000000000000180057
:10514000180018001800180018001800180018009F
:10515000180018001800180018001800F81FF81F91
:1051600000000000000000000000000000000EE051
:105170001EF01EF01EF036D836D836D836D866CC9B
:1051800066CC66CCC6C6C6C6C6C6C6C686C386C3F9
:1051900000000000000000000000000000000C30D3
:1051A0001C303C303C306C306C30CC30CC308C31EE
:1051B0000C330C330C360C360C3C0C3C0C380C30DD
:1051C0000000000000000000000000000000E007F8
:1051D000F81F1C380E70066003C003C003C003C074
:1051E00003C003C003C006600E701C38F81FE00740
:1051F0000000000000000000000000000000FC0FA4
:10520000FC1F0C380C300C300C300C300C18FC1F10
:10521000FC070C000C000C000C000C000C000C0037
:105220000000000000000000000000000000E00797
:10523000F81F1C380E70066003E003C003C003C0F3
:1052400003C003C007E006630E3F1C3CF83FE0F7D5
:1052500000C0000000000000000000000000FE0F81
:10526000FE1F06380630063006300638FE1FFE07E1
:1052700006030606060C06180618063006300660F9
:105280000000000000000000000000000000E0033B
:10529000F80F1C0C0C180C180C001C00F803E00F85
:1052A000001E0038063006300E301C1CF80FE007D8
:1052B0000000000000000000000000000000FE7F71
:1052C000FE7F8001800180018001800180018001DA
:1052D00080018001800180018001800180018001C6
:1052E00000000000000000000000000000000C3082
:1052F0000C300C300C300C300C300C300C300C30CE
:105300000C300C300C300C300C301818F81FE00743
:10531000000000000000000000000000000003602A
:105320000630063006300C180C180C18180C180C27
:10533000380E30063006700760036003C001C001FC
:1053400000000000000000000000000000000360FA
:10535000C361C361C36166336633663366336633E4
:1053600066336C1B6C1B6C1B2C1A3C1E380E380EE3
:1053700000000000000000000000000000000FE03E
:105380000C7018303018700C600EC007800380035A
:10539000C003E006700C301C18180C300E6007E0DB
:1053A000000000000000000000000000000003C03A
:1053B00006600C301C383818300C6006E007C0035B
:1053C00080018001800180018001800180018001D5
:1053D0000000000000000000000000000000FC7F52
:1053E000FC7F006000300018000C00060003800104
:1053F000C0006000300018000C000600FE7FFE7F39
:105400000000000000000000000000000000E003B9
:10541000E003600060006000600060006000600009
:10542000600060006000600060006000600060007C
:10543000600060006000E003E00300000000300056
:105440003000600060006000C000C000C000C0010B
:1054500080018001800100030003000300060006B4
:105460000000000000000000000000000000E00359
:10547000E003000300030003000300030003000334
:105480000003000300030003000300030003000304
:10549000000300030003E003E0030000000000003D
:1054A000C001C00160036003600330063006180CC1
:1054B000180C0000000000000000000000000000C8
:1054C00000000000000000000000000000000000DC
:1054D00000000000000000000000000000000000CC
:1054E0000000000000000000000000000000FFFFBE
:1054F000FFFF0000000000000000000000000C00A2
:105500000C000C000C000C000C000000000000005F
:10551000000000000000000000000000000000008B
:10552000000000000000000000000000000000007B
:105530000000000000000000F003F8071C0C0C0C39
:10554000000FF00FF80C0C0C0C0C1C0FF80FF018DF
:105550000000000000000000000000000000180033
:105560001800180018001800D803F80F380C181885
:1055700018181818181818181818380CF80FD80315
:10558000000000000000000000000000000000001B
:105590000000000000000000C003F007300E180CEF
:1055A0001800180018001800180C300EF007C0037F
:1055B00000000000000000000000000000000018D3
:1055C0000018001800180018C01BF01F301C181815
:1055D00018181818181818181818301CF01FC01BA5
:1055E00000000000000000000000000000000000BB
:1055F0000000000000000000C003F00F300C18187D
:10560000F81FF81F180018003818301CF00FC007DA
:105610000000000000000000000000000000800FFB
:10562000C00FC000C000C000F007F007C000C000FD
:10563000C000C000C000C000C000C000C000C0006A
:10564000000000000000000000000000000000005A
:105650000000000000000000E00DF80F180E0C0C18
:105660000C0C0C0C0C0C0C0C0C0C180EF80FE00DA8
:10567000000C0C0C1C06F807F001000000001800DC
:105680001800180018001800D807F80F381C181850
:10569000181818181818181818181818181818188A
:1056A0000000000000000000000000000000C0003A
:1056B000C000000000000000C000C000C000C0002A
:1056C000C000C000C000C000C000C000C000C000DA
:1056D0000000000000000000000000000000C0000A
:1056E000C000000000000000C000C000C000C000FA
:1056F000C000C000C000C000C000C000C000C000AA
:10570000C000C000C000F8007800000000000C00DD
:105710000C000C000C000C000C0C0C060C038C0193
:10572000CC006C00FC009C018C030C030C060C0CE0
:105730000000000000000000000000000000C000A9
:10574000C000C000C000C000C000C000C000C00059
:10575000C000C000C000C000C000C000C000C00049
:105760000000000000000000000000000000000039
:1057700000000000000000007C3CFF7EC7E383C106
:1057800083C183C183C183C183C183C183C183C1F9
:105790000000000000000000000000000000000009
:1057A00000000000000000009807F80F381C1818CF
:1057B0001818181818181818181818181818181869
:1057C00000000000000000000000000000000000D9
:1057D0000000000000000000C003F00F300C18189B
:1057E00018181818181818181818300CF00FC003CB
:1057F00000000000000000000000000000000000A9
:105800000000000000000000D803F80F380C181842
:1058100018181818181818181818380CF80FD80372
:105820001800180018001800180000000000000000
:105830000000000000000000C01BF01F301C181802
:1058400018181818181818181818301CF01FC01B32
:1058500000180018001800180018000000000000D0
:105860000000000000000000B007F00370003000EE
:1058700030003000300030003000300030003000A8
:105880000000000000000000000000000000000018
:105890000000000000000000E003F003380E180CC8
:1058A0003800F003C007000C180C380EF007E003B6
:1058B00000000000000000000000000000000000E8
:1058C0008000C000C000C000F007F007C000C000AA
:1058D000C000C000C000C000C000C000C0078007FA
:1058E00000000000000000000000000000000000B8
:1058F00000000000000000001818181818181818E8
:1059000018181818181818181818381CF01FE0194B
:105910000000000000000000000000000000000087
:1059200000000000000000000C18180C180C180CE7
:10593000300630063006600360036003C001C0011A
:105940000000000000000000000000000000000057
:105950000000000000000000C141C141C361636359
:10596000636363633636363636361C1C1C1C1C1CBF
:105970000000000000000000000000000000000027
:1059800000000000000000001C38381C300C6006CD
:1059900060036003600360036006300C381C1C3831
:1059A00000000000000000000000000000000000F7
:1059B0000000000000000000183030183018701887
:1059C000600C600CE00CC006C006800380038003FE
:1059D00080018001C001F0007000000000000000A4
:1059E0000000000000000000FC1FFC1F000C00066F
:1059F00000038001C000600030001800FC1FFC1F85
:105A00000000000000000000000000000000000393
:105A10008001C000C000C000C000C000C000600025
:105A20006000300060004000C000C000C000C00046
:105A3000C000C000800100030000000000008001E1
:105A4000800180018001800180018001800180014E
:105A5000800180018001800180018001800180013E
:105A60008001800180018001800100000000600051
:105A7000C000C0018001800180018001800100031D
:105A80000003000600030001800180018001800105
:105A900080018001C00060000000000000000000E4
:105AA000000000000000000000000000F010F81FDF
:105AB000080F0000000000000000000000000000CF
:105AC0000000000000000000000000000F000000C7
:105AD0000F000000FF0000000F0000000F0000009A
