:020000040800F2
:100000008806002029020008950300088D030008D7
:1000100091030008DB020008D10600080000000080
:100020000000000000000000000000004104000883
:10003000DF020008000000009703000865050008C3
:10004000430200084302000843020008430200087C
:10005000430200084302000843020008430200086C
:10006000430200084302000843020008430200085C
:10007000430200084302000843020008430200084C
:10008000430200084302000843020008430200083C
:10009000430200084302000843020008430200082C
:1000A000430200084302000843020008430200081C
:1000B000430200084302000843020008430200080C
:1000C00043020008430200084302000843020008FC
:1000D00043020008430200084302000843020008EC
:1000E00043020008430200084302000843020008DC
:1000F00043020008430200084302000843020008CC
:1001000043020008430200084302000843020008BB
:1001100043020008430200084302000843020008AB
:10012000430200084302000843020008430200089B
:10013000430200084302000843020008430200088B
:10014000430200084302000843020008430200087B
:10015000430200084302000843020008430200086B
:10016000430200084302000843020008430200085B
:10017000430200084302000843020008430200084B
:10018000430200084302000800F002F800F03CF8C7
:100190000AA090E8000C82448344AAF10107DA45E2
:1001A00001D100F031F8AFF2090EBAE80F0013F0F8
:1001B000010F18BFFB1A43F0010318476005000048
:1001C00080050000103A24BF78C878C1FAD85207D9
:1001D00024BF30C830C144BF04680C6070470000C1
:1001E0000023002400250026103A28BF78C1FBD840
:1001F000520728BF30C148BF0B6070471FB500F0E1
:1002000087FA1FBD10B510BD00F031F81146FFF799
:10021000F5FF00F05FFA00F04FF803B4FFF7F2FFCC
:1002200003BC00F053F80000094880470948004724
:10023000FEE7FEE7FEE7FEE7FEE7FEE7FEE7FEE796
:10024000FEE7FEE704480549054A064B70470000F3
:100250006D0500088901000888000020880600203C
:10026000880200208802002070477047704775465A
:1002700000F028F8AE4605006946534620F0070016
:10028000854618B020B5FFF7DDFFBDE820404FF0F0
:1002900000064FF000074FF000084FF0000B21F070
:1002A0000701AC46ACE8C009ACE8C009ACE8C0093D
:1002B000ACE8C0098D4670470446AFF30080204685
:1002C000FFF7ABFF004870472800002001491820C5
:1002D000ABBEFEE726000200704700BFFEE7704796
:1002E00008B505490968009100BF03490968009AEB
:1002F000891A8142F9D308BD04000020F0B50A46EE
:1003000000210023002400BF3DE0012505FA01F390
:10031000156805EA03049C4234D105684F000326A2
:10032000BE40B543056015794E00B54006683543BB
:1003300005601579012D02D01579022D16D1856839
:100340004F000326BE40B543856055794E00B54049
:10035000866835438560456801268E40B543456013
:10036000456896798E40B6B235434560C5684F0002
:100370000326BE40B543C560D5794E00B540C6687A
:100380003543C560491C1029BFD3F0BD00BFFEE74F
:1003900000BFFEE77047704729B1064A1268024362
:1003A000044B1A6004E0034A12688243014B1A604E
:1003B000704700003038024010B50146002200238B
:1003C00000204A11012A02D10A4C236808E0022ABF
:1003D00003D1084C7034236802E0064C743423685F
:1003E00001F01F02012494401C400CB1012000E0E8
:1003F000002010BD003802400021024A1170114651
:10040000087070470238024038B500200090002480
:10041000002500BF3120FFF7CFFF05460098401CA4
:1004200000900098B0F5A04F01D0002DF2D03120FF
:10043000FFF7C2FF08B1012400E00024204638BDC8
:10044000704700000CB50020019000904148006802
:1004500040F480303F49086000BF3E48006800F427
:10046000003000900198401C0190009818B9019844
:10047000B0F5A04FF1D13748006800F4003010B15A
:100480000120009001E0002000900098012860D138
:1004900030484030006840F080502E4940310860BC
:1004A0002D48006840F440402B4908602948083036
:1004B00000682849083108600846006840F4004098
:1004C00008600846006840F4A05008602348091FEF
:1004D0000860081F006840F08070091F086000BFB6
:1004E0001C48006800F000700028F9D01A48006825
:1004F00040F480301849086000BF1748406800F495
:1005000080300028F9D01448006840F400301249C7
:10051000086000BF1048406800F400300028F9D09F
:1005200040F205700E4908600A480830006820F063
:1005300003000849083108600846006840F00200DE
:10054000086000BF03480830006800F00C0008286D
:10055000F8D10CBD0038024000700040085440073C
:10056000003C024010B500F0A1F810BD10B51548D0
:10057000006840F47000134908601348006840F0B8
:1005800001001149086000200F49083108600E4839
:1005900000680E4908400C4908600D48091D0860B4
:1005A000081F006820F48020091F08600020064909
:1005B0000C310860FFF746FF4FF0006001498039B9
:1005C000086010BD88ED00E000380240FFFFF6FE35
:1005D0001030002470B52148007800B170BD0120B2
:1005E000FFF70AFF00BFFFF70FFF0028FBD01C48F2
:1005F00000684FF47A72B0FBF2F1481EB0F1807FD0
:1006000001D301201BE0481E4FF0E022506150173B
:100610000F22002807DA13071D0E124B00F00F04FB
:10062000241F1D5503E013071C0E0F4B1C5400BF65
:1006300000204FF0E022906107201061002008B1F7
:1006400000BFFEE7064800680849B0FBF1F0084922
:10065000086001200149087000BFBFE70C000020BE
:100660001400002018ED00E000E400E0C0C62D00FA
:10067000100000201CB501214020FFF78DFE4FF433
:10068000C040009000208DF8060001208DF8040085
:1006900000208DF8070003208DF805006946024808
:1006A000FFF72CFE1CBD0000001802400648006841
:1006B000401C054908600548006820B103480068EF
:1006C000401E024908607047040000200800002016
:1006D00000BFFEE7FFF74AFFFFF77CFFFFF7CAFF07
:1006E0004FF4C040094908804FF4FA60FFF7F8FD65
:1006F0000BE00648001F006880F4C0400349091F52
:1007000008604FF4FA70FFF7EBFDF2E718180240AB
:100710004FF04070E1EE100A704700003C070008FF
:100720000000002028000000C40100086407000841
:100730002800002060060000E00100080000000022
:1007400000000000000000000000000000000000A9
:10075000007A030A00000000000000000102030408
:040760000607080977
:0400000508000229C4
:00000001FF
